8=FIX.4.2|9=77|35=A|34=1|49=HSBC|52=20171128-06:21:17.848|56=ALGO-EXCHANGE|98=0|108=5|141=Y|10=191|
8=FIX.4.2|9=77|35=A|34=1|49=ALGO-EXCHANGE|52=20171128-06:21:18.498|56=HSBC|98=0|108=5|141=Y|10=193|
8=FIX.4.2|9=60|35=0|34=2|49=HSBC|52=20171128-06:21:23.174|56=ALGO-EXCHANGE|10=132|
8=FIX.4.2|9=60|35=0|34=2|49=ALGO-EXCHANGE|52=20171128-06:21:23.976|56=HSBC|10=142|
8=FIX.4.2|9=60|35=0|34=3|49=HSBC|52=20171128-06:21:28.273|56=ALGO-EXCHANGE|10=138|
8=FIX.4.2|9=60|35=0|34=3|49=ALGO-EXCHANGE|52=20171128-06:21:28.976|56=HSBC|10=148|
8=FIX.4.2|9=60|35=0|34=4|49=ALGO-EXCHANGE|52=20171128-06:21:33.977|56=HSBC|10=146|
8=FIX.4.2|9=60|35=0|34=4|49=HSBC|52=20171128-06:21:33.978|56=ALGO-EXCHANGE|10=147|
8=FIX.4.2|9=60|35=0|34=5|49=HSBC|52=20171128-06:21:39.153|56=ALGO-EXCHANGE|10=139|
8=FIX.4.2|9=60|35=0|34=5|49=ALGO-EXCHANGE|52=20171128-06:21:39.156|56=HSBC|10=142|
8=FIX.4.2|9=60|35=0|34=6|49=HSBC|52=20171128-06:21:44.153|56=ALGO-EXCHANGE|10=136|
8=FIX.4.2|9=60|35=0|34=6|49=ALGO-EXCHANGE|52=20171128-06:21:44.156|56=HSBC|10=139|
8=FIX.4.2|9=60|35=0|34=7|49=HSBC|52=20171128-06:21:49.153|56=ALGO-EXCHANGE|10=142|
8=FIX.4.2|9=60|35=0|34=7|49=ALGO-EXCHANGE|52=20171128-06:21:49.976|56=HSBC|10=155|
8=FIX.4.2|9=60|35=0|34=8|49=HSBC|52=20171128-06:21:54.153|56=ALGO-EXCHANGE|10=139|
8=FIX.4.2|9=60|35=0|34=8|49=ALGO-EXCHANGE|52=20171128-06:21:54.977|56=HSBC|10=153|
8=FIX.4.2|9=60|35=0|34=9|49=HSBC|52=20171128-06:21:59.153|56=ALGO-EXCHANGE|10=145|
8=FIX.4.2|9=60|35=0|34=9|49=ALGO-EXCHANGE|52=20171128-06:21:59.977|56=HSBC|10=159|
8=FIX.4.2|9=61|35=0|34=10|49=HSBC|52=20171128-06:22:04.153|56=ALGO-EXCHANGE|10=177|
8=FIX.4.2|9=61|35=0|34=10|49=ALGO-EXCHANGE|52=20171128-06:22:04.977|56=HSBC|10=191|
8=FIX.4.2|9=61|35=0|34=11|49=HSBC|52=20171128-06:22:09.153|56=ALGO-EXCHANGE|10=183|
8=FIX.4.2|9=61|35=0|34=11|49=ALGO-EXCHANGE|52=20171128-06:22:09.977|56=HSBC|10=197|
8=FIX.4.2|9=61|35=0|34=12|49=HSBC|52=20171128-06:22:14.153|56=ALGO-EXCHANGE|10=180|
8=FIX.4.2|9=61|35=0|34=12|49=ALGO-EXCHANGE|52=20171128-06:22:14.977|56=HSBC|10=194|
8=FIX.4.2|9=61|35=0|34=13|49=HSBC|52=20171128-06:22:19.154|56=ALGO-EXCHANGE|10=187|
8=FIX.4.2|9=61|35=0|34=13|49=ALGO-EXCHANGE|52=20171128-06:22:20.977|56=HSBC|10=192|
8=FIX.4.2|9=61|35=0|34=14|49=HSBC|52=20171128-06:22:25.154|56=ALGO-EXCHANGE|10=185|
8=FIX.4.2|9=61|35=0|34=14|49=ALGO-EXCHANGE|52=20171128-06:22:25.978|56=HSBC|10=199|
8=FIX.4.2|9=61|35=0|34=15|49=HSBC|52=20171128-06:22:31.153|56=ALGO-EXCHANGE|10=182|
8=FIX.4.2|9=61|35=0|34=15|49=ALGO-EXCHANGE|52=20171128-06:22:31.156|56=HSBC|10=185|
8=FIX.4.2|9=61|35=0|34=16|49=HSBC|52=20171128-06:22:36.154|56=ALGO-EXCHANGE|10=189|
8=FIX.4.2|9=61|35=0|34=16|49=ALGO-EXCHANGE|52=20171128-06:22:36.977|56=HSBC|10=202|
8=FIX.4.2|9=61|35=0|34=17|49=ALGO-EXCHANGE|52=20171128-06:22:41.977|56=HSBC|10=199|
8=FIX.4.2|9=61|35=0|34=17|49=HSBC|52=20171128-06:22:41.978|56=ALGO-EXCHANGE|10=200|
8=FIX.4.2|9=61|35=0|34=18|49=ALGO-EXCHANGE|52=20171128-06:22:46.977|56=HSBC|10=205|
8=FIX.4.2|9=61|35=0|34=18|49=HSBC|52=20171128-06:22:46.978|56=ALGO-EXCHANGE|10=206|
8=FIX.4.2|9=61|35=0|34=19|49=ALGO-EXCHANGE|52=20171128-06:22:51.977|56=HSBC|10=202|
8=FIX.4.2|9=61|35=0|34=19|49=HSBC|52=20171128-06:22:51.978|56=ALGO-EXCHANGE|10=203|
8=FIX.4.2|9=61|35=0|34=20|49=ALGO-EXCHANGE|52=20171128-06:22:56.977|56=HSBC|10=199|
8=FIX.4.2|9=61|35=0|34=20|49=HSBC|52=20171128-06:22:56.979|56=ALGO-EXCHANGE|10=201|
8=FIX.4.2|9=61|35=0|34=21|49=ALGO-EXCHANGE|52=20171128-06:23:01.977|56=HSBC|10=191|
8=FIX.4.2|9=61|35=0|34=21|49=HSBC|52=20171128-06:23:02.153|56=ALGO-EXCHANGE|10=178|
8=FIX.4.2|9=61|35=0|34=22|49=ALGO-EXCHANGE|52=20171128-06:23:06.977|56=HSBC|10=197|
8=FIX.4.2|9=61|35=0|34=22|49=HSBC|52=20171128-06:23:07.154|56=ALGO-EXCHANGE|10=185|
8=FIX.4.2|9=61|35=0|34=23|49=ALGO-EXCHANGE|52=20171128-06:23:11.977|56=HSBC|10=194|
8=FIX.4.2|9=61|35=0|34=23|49=HSBC|52=20171128-06:23:12.155|56=ALGO-EXCHANGE|10=183|
8=FIX.4.2|9=61|35=0|34=24|49=ALGO-EXCHANGE|52=20171128-06:23:16.977|56=HSBC|10=200|
8=FIX.4.2|9=61|35=0|34=24|49=HSBC|52=20171128-06:23:18.158|56=ALGO-EXCHANGE|10=193|
8=FIX.4.2|9=61|35=0|34=25|49=ALGO-EXCHANGE|52=20171128-06:23:21.977|56=HSBC|10=197|
8=FIX.4.2|9=61|35=0|34=25|49=HSBC|52=20171128-06:23:24.154|56=ALGO-EXCHANGE|10=187|
8=FIX.4.2|9=61|35=0|34=26|49=ALGO-EXCHANGE|52=20171128-06:23:26.977|56=HSBC|10=203|
8=FIX.4.2|9=61|35=0|34=26|49=HSBC|52=20171128-06:23:30.154|56=ALGO-EXCHANGE|10=185|
8=FIX.4.2|9=61|35=0|34=27|49=ALGO-EXCHANGE|52=20171128-06:23:31.977|56=HSBC|10=200|
8=FIX.4.2|9=61|35=0|34=27|49=HSBC|52=20171128-06:23:35.154|56=ALGO-EXCHANGE|10=191|
8=FIX.4.2|9=61|35=0|34=28|49=ALGO-EXCHANGE|52=20171128-06:23:36.977|56=HSBC|10=206|
8=FIX.4.2|9=61|35=0|34=28|49=HSBC|52=20171128-06:23:40.154|56=ALGO-EXCHANGE|10=188|
8=FIX.4.2|9=61|35=0|34=29|49=ALGO-EXCHANGE|52=20171128-06:23:41.977|56=HSBC|10=203|
8=FIX.4.2|9=61|35=0|34=29|49=HSBC|52=20171128-06:23:45.154|56=ALGO-EXCHANGE|10=194|
8=FIX.4.2|9=61|35=0|34=30|49=ALGO-EXCHANGE|52=20171128-06:23:46.978|56=HSBC|10=201|
8=FIX.4.2|9=61|35=0|34=30|49=HSBC|52=20171128-06:23:50.155|56=ALGO-EXCHANGE|10=183|
8=FIX.4.2|9=61|35=0|34=31|49=ALGO-EXCHANGE|52=20171128-06:23:52.978|56=HSBC|10=199|
8=FIX.4.2|9=61|35=0|34=31|49=HSBC|52=20171128-06:23:56.154|56=ALGO-EXCHANGE|10=189|
8=FIX.4.2|9=61|35=0|34=32|49=ALGO-EXCHANGE|52=20171128-06:23:58.978|56=HSBC|10=206|
8=FIX.4.2|9=61|35=0|34=32|49=HSBC|52=20171128-06:24:01.154|56=ALGO-EXCHANGE|10=181|
8=FIX.4.2|9=61|35=0|34=33|49=ALGO-EXCHANGE|52=20171128-06:24:03.978|56=HSBC|10=198|
8=FIX.4.2|9=61|35=0|34=33|49=HSBC|52=20171128-06:24:06.154|56=ALGO-EXCHANGE|10=187|
8=FIX.4.2|9=61|35=0|34=34|49=ALGO-EXCHANGE|52=20171128-06:24:09.978|56=HSBC|10=205|
8=FIX.4.2|9=61|35=0|34=34|49=HSBC|52=20171128-06:24:11.155|56=ALGO-EXCHANGE|10=185|
8=FIX.4.2|9=61|35=0|34=35|49=ALGO-EXCHANGE|52=20171128-06:24:14.978|56=HSBC|10=202|
8=FIX.4.2|9=61|35=0|34=35|49=HSBC|52=20171128-06:24:17.154|56=ALGO-EXCHANGE|10=191|
8=FIX.4.2|9=61|35=0|34=36|49=ALGO-EXCHANGE|52=20171128-06:24:19.978|56=HSBC|10=208|
8=FIX.4.2|9=61|35=0|34=36|49=HSBC|52=20171128-06:24:22.154|56=ALGO-EXCHANGE|10=188|
8=FIX.4.2|9=61|35=0|34=37|49=ALGO-EXCHANGE|52=20171128-06:24:25.977|56=HSBC|10=205|
8=FIX.4.2|9=61|35=0|34=37|49=HSBC|52=20171128-06:24:27.154|56=ALGO-EXCHANGE|10=194|
8=FIX.4.2|9=61|35=0|34=38|49=ALGO-EXCHANGE|52=20171128-06:24:30.977|56=HSBC|10=202|
8=FIX.4.2|9=61|35=0|34=38|49=HSBC|52=20171128-06:24:32.155|56=ALGO-EXCHANGE|10=192|
8=FIX.4.2|9=61|35=0|34=39|49=ALGO-EXCHANGE|52=20171128-06:24:35.978|56=HSBC|10=209|
8=FIX.4.2|9=61|35=0|34=39|49=HSBC|52=20171128-06:24:37.155|56=ALGO-EXCHANGE|10=198|
8=FIX.4.2|9=61|35=0|34=40|49=ALGO-EXCHANGE|52=20171128-06:24:41.978|56=HSBC|10=198|
8=FIX.4.2|9=61|35=0|34=40|49=HSBC|52=20171128-06:24:42.155|56=ALGO-EXCHANGE|10=186|
8=FIX.4.2|9=61|35=0|34=41|49=ALGO-EXCHANGE|52=20171128-06:24:46.978|56=HSBC|10=204|
8=FIX.4.2|9=61|35=0|34=41|49=HSBC|52=20171128-06:24:47.155|56=ALGO-EXCHANGE|10=192|
8=FIX.4.2|9=61|35=0|34=42|49=ALGO-EXCHANGE|52=20171128-06:24:52.977|56=HSBC|10=201|
8=FIX.4.2|9=61|35=0|34=42|49=HSBC|52=20171128-06:24:52.979|56=ALGO-EXCHANGE|10=203|
8=FIX.4.2|9=61|35=0|34=43|49=ALGO-EXCHANGE|52=20171128-06:24:57.978|56=HSBC|10=208|
8=FIX.4.2|9=61|35=0|34=43|49=HSBC|52=20171128-06:24:57.981|56=ALGO-EXCHANGE|10=202|
8=FIX.4.2|9=61|35=0|34=44|49=ALGO-EXCHANGE|52=20171128-06:25:02.978|56=HSBC|10=200|
8=FIX.4.2|9=61|35=0|34=44|49=HSBC|52=20171128-06:25:03.155|56=ALGO-EXCHANGE|10=188|
8=FIX.4.2|9=61|35=0|34=45|49=ALGO-EXCHANGE|52=20171128-06:25:07.978|56=HSBC|10=206|
8=FIX.4.2|9=61|35=0|34=45|49=HSBC|52=20171128-06:25:09.154|56=ALGO-EXCHANGE|10=194|
8=FIX.4.2|9=61|35=0|34=46|49=ALGO-EXCHANGE|52=20171128-06:25:12.979|56=HSBC|10=204|
8=FIX.4.2|9=61|35=0|34=46|49=HSBC|52=20171128-06:25:14.155|56=ALGO-EXCHANGE|10=192|
8=FIX.4.2|9=61|35=0|34=47|49=ALGO-EXCHANGE|52=20171128-06:25:18.978|56=HSBC|10=210|
8=FIX.4.2|9=61|35=0|34=47|49=HSBC|52=20171128-06:25:19.155|56=ALGO-EXCHANGE|10=198|
8=FIX.4.2|9=61|35=0|34=48|49=ALGO-EXCHANGE|52=20171128-06:25:23.978|56=HSBC|10=207|
8=FIX.4.2|9=61|35=0|34=48|49=HSBC|52=20171128-06:25:24.155|56=ALGO-EXCHANGE|10=195|
8=FIX.4.2|9=61|35=0|34=49|49=ALGO-EXCHANGE|52=20171128-06:25:28.979|56=HSBC|10=214|
8=FIX.4.2|9=61|35=0|34=49|49=HSBC|52=20171128-06:25:30.155|56=ALGO-EXCHANGE|10=193|
8=FIX.4.2|9=61|35=0|34=50|49=ALGO-EXCHANGE|52=20171128-06:25:33.979|56=HSBC|10=202|
8=FIX.4.2|9=61|35=0|34=50|49=HSBC|52=20171128-06:25:35.155|56=ALGO-EXCHANGE|10=190|
8=FIX.4.2|9=61|35=0|34=51|49=ALGO-EXCHANGE|52=20171128-06:25:38.979|56=HSBC|10=208|
8=FIX.4.2|9=61|35=0|34=51|49=HSBC|52=20171128-06:25:40.155|56=ALGO-EXCHANGE|10=187|
8=FIX.4.2|9=61|35=0|34=52|49=ALGO-EXCHANGE|52=20171128-06:25:44.978|56=HSBC|10=205|
8=FIX.4.2|9=61|35=0|34=52|49=HSBC|52=20171128-06:25:46.155|56=ALGO-EXCHANGE|10=194|
8=FIX.4.2|9=61|35=0|34=53|49=ALGO-EXCHANGE|52=20171128-06:25:49.979|56=HSBC|10=212|
8=FIX.4.2|9=61|35=0|34=53|49=HSBC|52=20171128-06:25:51.155|56=ALGO-EXCHANGE|10=191|
8=FIX.4.2|9=61|35=0|34=54|49=ALGO-EXCHANGE|52=20171128-06:25:55.979|56=HSBC|10=210|
8=FIX.4.2|9=61|35=0|34=54|49=HSBC|52=20171128-06:25:56.155|56=ALGO-EXCHANGE|10=197|
8=FIX.4.2|9=61|35=0|34=55|49=HSBC|52=20171128-06:26:01.155|56=ALGO-EXCHANGE|10=189|
8=FIX.4.2|9=61|35=0|34=55|49=ALGO-EXCHANGE|52=20171128-06:26:01.158|56=HSBC|10=192|
8=FIX.4.2|9=61|35=0|34=56|49=HSBC|52=20171128-06:26:06.155|56=ALGO-EXCHANGE|10=195|
8=FIX.4.2|9=61|35=0|34=56|49=ALGO-EXCHANGE|52=20171128-06:26:06.979|56=HSBC|10=209|
8=FIX.4.2|9=61|35=0|34=57|49=HSBC|52=20171128-06:26:11.155|56=ALGO-EXCHANGE|10=192|
8=FIX.4.2|9=61|35=0|34=57|49=ALGO-EXCHANGE|52=20171128-06:26:12.979|56=HSBC|10=207|
8=FIX.4.2|9=61|35=0|34=58|49=HSBC|52=20171128-06:26:16.155|56=ALGO-EXCHANGE|10=198|
8=FIX.4.2|9=61|35=0|34=58|49=ALGO-EXCHANGE|52=20171128-06:26:18.979|56=HSBC|10=214|
8=FIX.4.2|9=61|35=0|34=59|49=HSBC|52=20171128-06:26:21.156|56=ALGO-EXCHANGE|10=196|
8=FIX.4.2|9=61|35=0|34=59|49=ALGO-EXCHANGE|52=20171128-06:26:23.979|56=HSBC|10=211|
8=FIX.4.2|9=61|35=0|34=60|49=HSBC|52=20171128-06:26:27.155|56=ALGO-EXCHANGE|10=193|
8=FIX.4.2|9=61|35=0|34=60|49=ALGO-EXCHANGE|52=20171128-06:26:29.084|56=HSBC|10=196|
8=FIX.4.2|9=61|35=0|34=61|49=HSBC|52=20171128-06:26:32.155|56=ALGO-EXCHANGE|10=190|
8=FIX.4.2|9=61|35=0|34=61|49=ALGO-EXCHANGE|52=20171128-06:26:34.978|56=HSBC|10=205|
8=FIX.4.2|9=61|35=0|34=62|49=HSBC|52=20171128-06:26:37.155|56=ALGO-EXCHANGE|10=196|
8=FIX.4.2|9=61|35=0|34=62|49=ALGO-EXCHANGE|52=20171128-06:26:39.978|56=HSBC|10=211|
8=FIX.4.2|9=61|35=0|34=63|49=HSBC|52=20171128-06:26:42.155|56=ALGO-EXCHANGE|10=193|
8=FIX.4.2|9=61|35=0|34=63|49=ALGO-EXCHANGE|52=20171128-06:26:44.978|56=HSBC|10=208|
8=FIX.4.2|9=61|35=0|34=64|49=HSBC|52=20171128-06:26:47.155|56=ALGO-EXCHANGE|10=199|
8=FIX.4.2|9=61|35=0|34=64|49=ALGO-EXCHANGE|52=20171128-06:26:49.979|56=HSBC|10=215|
8=FIX.4.2|9=61|35=0|34=65|49=HSBC|52=20171128-06:26:52.155|56=ALGO-EXCHANGE|10=196|
8=FIX.4.2|9=61|35=0|34=65|49=ALGO-EXCHANGE|52=20171128-06:26:55.978|56=HSBC|10=212|
8=FIX.4.2|9=61|35=0|34=66|49=HSBC|52=20171128-06:26:57.155|56=ALGO-EXCHANGE|10=202|
8=FIX.4.2|9=61|35=0|34=66|49=ALGO-EXCHANGE|52=20171128-06:27:00.978|56=HSBC|10=204|
8=FIX.4.2|9=61|35=0|34=67|49=HSBC|52=20171128-06:27:02.155|56=ALGO-EXCHANGE|10=194|
8=FIX.4.2|9=61|35=0|34=67|49=ALGO-EXCHANGE|52=20171128-06:27:05.979|56=HSBC|10=211|
8=FIX.4.2|9=61|35=0|34=68|49=HSBC|52=20171128-06:27:07.155|56=ALGO-EXCHANGE|10=200|
8=FIX.4.2|9=61|35=0|34=68|49=ALGO-EXCHANGE|52=20171128-06:27:11.979|56=HSBC|10=209|
8=FIX.4.2|9=61|35=0|34=69|49=HSBC|52=20171128-06:27:12.156|56=ALGO-EXCHANGE|10=198|
8=FIX.4.2|9=61|35=0|34=69|49=ALGO-EXCHANGE|52=20171128-06:27:16.979|56=HSBC|10=215|
8=FIX.4.2|9=61|35=0|34=70|49=HSBC|52=20171128-06:27:17.156|56=ALGO-EXCHANGE|10=195|
8=FIX.4.2|9=61|35=0|34=70|49=ALGO-EXCHANGE|52=20171128-06:27:21.979|56=HSBC|10=203|
8=FIX.4.2|9=61|35=0|34=71|49=HSBC|52=20171128-06:27:22.156|56=ALGO-EXCHANGE|10=192|
8=FIX.4.2|9=144|35=D|34=72|49=HSBC|52=20171128-06:27:23.743|56=ALGO-EXCHANGE|11=1511850430922|21=3|38=100|40=2|44=95|54=1|55=1020|59=0|60=20171128-06:27:23.741|10=049|
8=FIX.4.2|9=170|35=8|34=71|49=ALGO-EXCHANGE|52=20171128-06:27:24.303|56=HSBC|6=105|11=1511850430922|14=0|17=0000000000|20=0|37=1511850430922|38=100|39=0|54=1|55=1020|109=1|150=2|151=100|10=110|
8=FIX.4.2|9=61|35=0|34=73|49=HSBC|52=20171128-06:27:29.156|56=ALGO-EXCHANGE|10=201|
8=FIX.4.2|9=61|35=0|34=72|49=ALGO-EXCHANGE|52=20171128-06:27:29.979|56=HSBC|10=213|
8=FIX.4.2|9=61|35=0|34=74|49=HSBC|52=20171128-06:27:35.155|56=ALGO-EXCHANGE|10=198|
8=FIX.4.2|9=61|35=0|34=73|49=ALGO-EXCHANGE|52=20171128-06:27:35.157|56=HSBC|10=199|
8=FIX.4.2|9=61|35=0|34=75|49=HSBC|52=20171128-06:27:40.155|56=ALGO-EXCHANGE|10=195|
8=FIX.4.2|9=61|35=0|34=74|49=ALGO-EXCHANGE|52=20171128-06:27:40.158|56=HSBC|10=197|
8=FIX.4.2|9=143|35=D|34=76|49=HSBC|52=20171128-06:27:44.273|56=ALGO-EXCHANGE|11=1511850454999|21=3|38=200|40=1|44=0|54=2|55=1020|59=0|60=20171128-06:27:44.273|10=015|
8=FIX.4.2|9=170|35=8|34=75|49=ALGO-EXCHANGE|52=20171128-06:27:44.379|56=HSBC|6=105|11=1511850454999|14=0|17=0000000000|20=0|37=1511850454999|38=200|39=0|54=2|55=1020|109=1|150=2|151=200|10=172|
8=FIX.4.2|9=180|35=8|34=76|49=ALGO-EXCHANGE|52=20171128-06:27:45.002|56=HSBC|6=0|11=1511850454999|14=100|17=1511850464576-1020-3|20=3|37=1511850454999|38=200|39=1|54=2|55=1020|109=1|150=1|151=100|10=176|
8=FIX.4.2|9=178|35=8|34=77|49=ALGO-EXCHANGE|52=20171128-06:27:45.208|56=HSBC|6=0|11=1511850430922|14=0|17=1511850464576-1020-3|20=3|37=1511850430922|38=100|39=2|54=1|55=1020|109=1|150=2|151=100|10=055|
8=FIX.4.2|9=61|35=0|34=77|49=HSBC|52=20171128-06:27:50.155|56=ALGO-EXCHANGE|10=198|
8=FIX.4.2|9=61|35=0|34=78|49=ALGO-EXCHANGE|52=20171128-06:27:50.979|56=HSBC|10=213|
8=FIX.4.2|9=61|35=0|34=78|49=HSBC|52=20171128-06:27:55.156|56=ALGO-EXCHANGE|10=205|
8=FIX.4.2|9=61|35=0|34=79|49=ALGO-EXCHANGE|52=20171128-06:27:55.979|56=HSBC|10=219|
8=FIX.4.2|9=61|35=0|34=80|49=ALGO-EXCHANGE|52=20171128-06:28:00.979|56=HSBC|10=202|
8=FIX.4.2|9=61|35=0|34=79|49=HSBC|52=20171128-06:28:00.980|56=ALGO-EXCHANGE|10=202|
8=FIX.4.2|9=61|35=0|34=81|49=ALGO-EXCHANGE|52=20171128-06:28:05.979|56=HSBC|10=208|
8=FIX.4.2|9=61|35=0|34=80|49=HSBC|52=20171128-06:28:05.990|56=ALGO-EXCHANGE|10=200|
8=FIX.4.2|9=61|35=0|34=82|49=ALGO-EXCHANGE|52=20171128-06:28:10.979|56=HSBC|10=205|
8=FIX.4.2|9=61|35=0|34=81|49=HSBC|52=20171128-06:28:11.156|56=ALGO-EXCHANGE|10=192|
8=FIX.4.2|9=61|35=0|34=83|49=ALGO-EXCHANGE|52=20171128-06:28:15.980|56=HSBC|10=203|
8=FIX.4.2|9=61|35=0|34=82|49=HSBC|52=20171128-06:28:17.156|56=ALGO-EXCHANGE|10=199|
8=FIX.4.2|9=77|35=A|34=1|49=HSBC|52=20171128-06:28:25.462|56=ALGO-EXCHANGE|98=0|108=5|141=Y|10=189|
8=FIX.4.2|9=77|35=A|34=1|49=ALGO-EXCHANGE|52=20171128-06:28:25.520|56=HSBC|98=0|108=5|141=Y|10=184|
8=FIX.4.2|9=60|35=0|34=2|49=ALGO-EXCHANGE|52=20171128-06:28:30.979|56=HSBC|10=150|
8=FIX.4.2|9=60|35=0|34=2|49=HSBC|52=20171128-06:28:30.981|56=ALGO-EXCHANGE|10=143|
8=FIX.4.2|9=60|35=0|34=3|49=ALGO-EXCHANGE|52=20171128-06:28:35.979|56=HSBC|10=156|
8=FIX.4.2|9=60|35=0|34=3|49=HSBC|52=20171128-06:28:36.431|56=ALGO-EXCHANGE|10=140|
8=FIX.4.2|9=142|35=D|34=4|49=HSBC|52=20171128-06:28:38.082|56=ALGO-EXCHANGE|11=1511850510478|21=3|38=500|40=1|44=0|54=1|55=1010|59=0|60=20171128-06:28:38.080|10=201|
8=FIX.4.2|9=169|35=8|34=4|49=ALGO-EXCHANGE|52=20171128-06:28:38.144|56=HSBC|6=105|11=1511850510478|14=0|17=0000000000|20=0|37=1511850510478|38=500|39=0|54=1|55=1010|109=1|150=2|151=500|10=092|
8=FIX.4.2|9=60|35=0|34=5|49=HSBC|52=20171128-06:28:43.431|56=ALGO-EXCHANGE|10=140|
8=FIX.4.2|9=60|35=0|34=5|49=ALGO-EXCHANGE|52=20171128-06:28:43.433|56=HSBC|10=142|
8=FIX.4.2|9=60|35=0|34=6|49=HSBC|52=20171128-06:28:48.431|56=ALGO-EXCHANGE|10=146|
8=FIX.4.2|9=60|35=0|34=6|49=ALGO-EXCHANGE|52=20171128-06:28:48.433|56=HSBC|10=148|
8=FIX.4.2|9=60|35=0|34=7|49=HSBC|52=20171128-06:28:53.431|56=ALGO-EXCHANGE|10=143|
8=FIX.4.2|9=60|35=0|34=7|49=ALGO-EXCHANGE|52=20171128-06:28:53.433|56=HSBC|10=145|
8=FIX.4.2|9=60|35=0|34=8|49=HSBC|52=20171128-06:28:58.431|56=ALGO-EXCHANGE|10=149|
8=FIX.4.2|9=60|35=0|34=8|49=ALGO-EXCHANGE|52=20171128-06:28:58.433|56=HSBC|10=151|
8=FIX.4.2|9=142|35=D|34=9|49=HSBC|52=20171128-06:29:00.291|56=ALGO-EXCHANGE|11=1511850532737|21=3|38=500|40=1|44=0|54=1|55=1010|59=0|60=20171128-06:29:00.291|10=194|
8=FIX.4.2|9=169|35=8|34=9|49=ALGO-EXCHANGE|52=20171128-06:29:00.366|56=HSBC|6=105|11=1511850532737|14=0|17=0000000000|20=0|37=1511850532737|38=500|39=0|54=1|55=1010|109=1|150=2|151=500|10=097|
8=FIX.4.2|9=61|35=0|34=10|49=HSBC|52=20171128-06:29:05.432|56=ALGO-EXCHANGE|10=185|
8=FIX.4.2|9=61|35=0|34=10|49=ALGO-EXCHANGE|52=20171128-06:29:05.434|56=HSBC|10=187|
8=FIX.4.2|9=61|35=0|34=11|49=HSBC|52=20171128-06:29:10.432|56=ALGO-EXCHANGE|10=182|
8=FIX.4.2|9=61|35=0|34=11|49=ALGO-EXCHANGE|52=20171128-06:29:10.980|56=HSBC|10=190|
8=FIX.4.2|9=61|35=0|34=12|49=HSBC|52=20171128-06:29:15.432|56=ALGO-EXCHANGE|10=188|
8=FIX.4.2|9=61|35=0|34=12|49=ALGO-EXCHANGE|52=20171128-06:29:15.980|56=HSBC|10=196|
8=FIX.4.2|9=61|35=0|34=13|49=HSBC|52=20171128-06:29:20.432|56=ALGO-EXCHANGE|10=185|
8=FIX.4.2|9=61|35=0|34=13|49=ALGO-EXCHANGE|52=20171128-06:29:20.980|56=HSBC|10=193|
8=FIX.4.2|9=77|35=A|34=1|49=HSBC|52=20171128-07:10:07.431|56=ALGO-EXCHANGE|98=0|108=5|141=Y|10=177|
8=FIX.4.2|9=77|35=A|34=1|49=ALGO-EXCHANGE|52=20171128-07:10:07.496|56=HSBC|98=0|108=5|141=Y|10=188|
8=FIX.4.2|9=60|35=0|34=2|49=HSBC|52=20171128-07:10:13.416|56=ALGO-EXCHANGE|10=129|
8=FIX.4.2|9=60|35=0|34=2|49=ALGO-EXCHANGE|52=20171128-07:10:13.418|56=HSBC|10=131|
8=FIX.4.2|9=60|35=0|34=3|49=HSBC|52=20171128-07:10:18.416|56=ALGO-EXCHANGE|10=135|
8=FIX.4.2|9=60|35=0|34=3|49=ALGO-EXCHANGE|52=20171128-07:10:18.421|56=HSBC|10=131|
8=FIX.4.2|9=60|35=0|34=4|49=HSBC|52=20171128-07:10:23.416|56=ALGO-EXCHANGE|10=132|
8=FIX.4.2|9=60|35=0|34=4|49=ALGO-EXCHANGE|52=20171128-07:10:23.446|56=HSBC|10=135|
8=FIX.4.2|9=60|35=0|34=5|49=HSBC|52=20171128-07:10:28.416|56=ALGO-EXCHANGE|10=138|
8=FIX.4.2|9=60|35=0|34=5|49=ALGO-EXCHANGE|52=20171128-07:10:28.446|56=HSBC|10=141|
8=FIX.4.2|9=60|35=0|34=6|49=HSBC|52=20171128-07:10:34.415|56=ALGO-EXCHANGE|10=135|
8=FIX.4.2|9=60|35=0|34=6|49=ALGO-EXCHANGE|52=20171128-07:10:34.417|56=HSBC|10=137|
8=FIX.4.2|9=60|35=0|34=7|49=HSBC|52=20171128-07:10:39.415|56=ALGO-EXCHANGE|10=141|
8=FIX.4.2|9=60|35=0|34=7|49=ALGO-EXCHANGE|52=20171128-07:10:39.418|56=HSBC|10=144|
8=FIX.4.2|9=60|35=0|34=8|49=ALGO-EXCHANGE|52=20171128-07:10:44.445|56=HSBC|10=141|
8=FIX.4.2|9=60|35=0|34=8|49=HSBC|52=20171128-07:10:44.446|56=ALGO-EXCHANGE|10=142|
8=FIX.4.2|9=60|35=0|34=9|49=HSBC|52=20171128-07:10:50.415|56=ALGO-EXCHANGE|10=136|
8=FIX.4.2|9=60|35=0|34=9|49=ALGO-EXCHANGE|52=20171128-07:10:50.417|56=HSBC|10=138|
8=FIX.4.2|9=61|35=0|34=10|49=ALGO-EXCHANGE|52=20171128-07:10:55.443|56=HSBC|10=183|
8=FIX.4.2|9=61|35=0|34=10|49=HSBC|52=20171128-07:10:55.445|56=ALGO-EXCHANGE|10=185|
8=FIX.4.2|9=61|35=0|34=11|49=ALGO-EXCHANGE|52=20171128-07:11:00.443|56=HSBC|10=175|
8=FIX.4.2|9=61|35=0|34=11|49=HSBC|52=20171128-07:11:00.445|56=ALGO-EXCHANGE|10=177|
8=FIX.4.2|9=61|35=0|34=12|49=ALGO-EXCHANGE|52=20171128-07:11:05.443|56=HSBC|10=181|
8=FIX.4.2|9=61|35=0|34=12|49=HSBC|52=20171128-07:11:06.414|56=ALGO-EXCHANGE|10=180|
8=FIX.4.2|9=61|35=0|34=13|49=ALGO-EXCHANGE|52=20171128-07:11:10.443|56=HSBC|10=178|
8=FIX.4.2|9=61|35=0|34=13|49=HSBC|52=20171128-07:11:12.413|56=ALGO-EXCHANGE|10=177|
8=FIX.4.2|9=61|35=0|34=14|49=ALGO-EXCHANGE|52=20171128-07:11:15.443|56=HSBC|10=184|
8=FIX.4.2|9=77|35=A|34=1|49=HSBC|52=20171128-07:18:28.414|56=ALGO-EXCHANGE|98=0|108=5|141=Y|10=189|
8=FIX.4.2|9=77|35=A|34=1|49=ALGO-EXCHANGE|52=20171128-07:18:28.502|56=HSBC|98=0|108=5|141=Y|10=187|
8=FIX.4.2|9=60|35=0|34=2|49=ALGO-EXCHANGE|52=20171128-07:18:33.708|56=HSBC|10=143|
8=FIX.4.2|9=60|35=0|34=2|49=HSBC|52=20171128-07:18:33.711|56=ALGO-EXCHANGE|10=137|
8=FIX.4.2|9=60|35=0|34=3|49=HSBC|52=20171128-07:18:39.392|56=ALGO-EXCHANGE|10=149|
8=FIX.4.2|9=60|35=0|34=3|49=ALGO-EXCHANGE|52=20171128-07:18:39.394|56=HSBC|10=151|
8=FIX.4.2|9=60|35=0|34=4|49=HSBC|52=20171128-07:18:44.392|56=ALGO-EXCHANGE|10=146|
8=FIX.4.2|9=60|35=0|34=4|49=ALGO-EXCHANGE|52=20171128-07:18:44.394|56=HSBC|10=148|
8=FIX.4.2|9=60|35=0|34=5|49=ALGO-EXCHANGE|52=20171128-07:18:49.707|56=HSBC|10=152|
8=FIX.4.2|9=60|35=0|34=5|49=HSBC|52=20171128-07:18:49.709|56=ALGO-EXCHANGE|10=154|
8=FIX.4.2|9=60|35=0|34=6|49=ALGO-EXCHANGE|52=20171128-07:18:54.707|56=HSBC|10=149|
8=FIX.4.2|9=60|35=0|34=6|49=HSBC|52=20171128-07:18:54.710|56=ALGO-EXCHANGE|10=143|
8=FIX.4.2|9=60|35=0|34=7|49=ALGO-EXCHANGE|52=20171128-07:18:59.707|56=HSBC|10=155|
8=FIX.4.2|9=60|35=0|34=7|49=HSBC|52=20171128-07:19:00.392|56=ALGO-EXCHANGE|10=142|
8=FIX.4.2|9=60|35=0|34=8|49=HSBC|52=20171128-07:19:05.392|56=ALGO-EXCHANGE|10=148|
8=FIX.4.2|9=60|35=0|34=8|49=ALGO-EXCHANGE|52=20171128-07:19:05.397|56=HSBC|10=153|
8=FIX.4.2|9=60|35=0|34=9|49=ALGO-EXCHANGE|52=20171128-07:19:10.706|56=HSBC|10=144|
8=FIX.4.2|9=60|35=0|34=9|49=HSBC|52=20171128-07:19:10.707|56=ALGO-EXCHANGE|10=145|
8=FIX.4.2|9=61|35=0|34=10|49=ALGO-EXCHANGE|52=20171128-07:19:15.706|56=HSBC|10=190|
8=FIX.4.2|9=61|35=0|34=10|49=HSBC|52=20171128-07:19:15.708|56=ALGO-EXCHANGE|10=192|
8=FIX.4.2|9=61|35=0|34=11|49=ALGO-EXCHANGE|52=20171128-07:19:20.707|56=HSBC|10=188|
8=FIX.4.2|9=61|35=0|34=11|49=HSBC|52=20171128-07:19:20.710|56=ALGO-EXCHANGE|10=182|
8=FIX.4.2|9=61|35=0|34=12|49=HSBC|52=20171128-07:19:26.390|56=ALGO-EXCHANGE|10=193|
8=FIX.4.2|9=61|35=0|34=12|49=ALGO-EXCHANGE|52=20171128-07:19:26.392|56=HSBC|10=195|
8=FIX.4.2|9=61|35=0|34=13|49=HSBC|52=20171128-07:19:31.390|56=ALGO-EXCHANGE|10=190|
8=FIX.4.2|9=61|35=0|34=13|49=ALGO-EXCHANGE|52=20171128-07:19:31.393|56=HSBC|10=193|
8=FIX.4.2|9=61|35=0|34=14|49=HSBC|52=20171128-07:19:36.390|56=ALGO-EXCHANGE|10=196|
8=FIX.4.2|9=61|35=0|34=14|49=ALGO-EXCHANGE|52=20171128-07:19:36.705|56=HSBC|10=196|
8=FIX.4.2|9=61|35=0|34=15|49=HSBC|52=20171128-07:19:41.390|56=ALGO-EXCHANGE|10=193|
8=FIX.4.2|9=61|35=0|34=15|49=ALGO-EXCHANGE|52=20171128-07:19:41.706|56=HSBC|10=194|
8=FIX.4.2|9=61|35=0|34=16|49=HSBC|52=20171128-07:19:47.390|56=ALGO-EXCHANGE|10=200|
8=FIX.4.2|9=61|35=0|34=16|49=ALGO-EXCHANGE|52=20171128-07:19:47.392|56=HSBC|10=202|
8=FIX.4.2|9=61|35=0|34=17|49=ALGO-EXCHANGE|52=20171128-07:19:52.705|56=HSBC|10=197|
8=FIX.4.2|9=61|35=0|34=17|49=HSBC|52=20171128-07:19:52.706|56=ALGO-EXCHANGE|10=198|
8=FIX.4.2|9=61|35=0|34=18|49=ALGO-EXCHANGE|52=20171128-07:19:57.705|56=HSBC|10=203|
8=FIX.4.2|9=61|35=0|34=18|49=HSBC|52=20171128-07:19:57.707|56=ALGO-EXCHANGE|10=205|
8=FIX.4.2|9=61|35=0|34=19|49=HSBC|52=20171128-07:20:03.389|56=ALGO-EXCHANGE|10=195|
8=FIX.4.2|9=61|35=0|34=19|49=ALGO-EXCHANGE|52=20171128-07:20:03.390|56=HSBC|10=187|
8=FIX.4.2|9=61|35=0|34=20|49=HSBC|52=20171128-07:20:08.389|56=ALGO-EXCHANGE|10=192|
8=FIX.4.2|9=61|35=0|34=20|49=ALGO-EXCHANGE|52=20171128-07:20:08.391|56=HSBC|10=185|
8=FIX.4.2|9=61|35=0|34=21|49=HSBC|52=20171128-07:20:13.390|56=ALGO-EXCHANGE|10=181|
8=FIX.4.2|9=61|35=0|34=21|49=ALGO-EXCHANGE|52=20171128-07:20:13.392|56=HSBC|10=183|
8=FIX.4.2|9=61|35=0|34=22|49=ALGO-EXCHANGE|52=20171128-07:20:18.705|56=HSBC|10=187|
8=FIX.4.2|9=61|35=0|34=22|49=HSBC|52=20171128-07:20:18.706|56=ALGO-EXCHANGE|10=188|
8=FIX.4.2|9=61|35=0|34=23|49=ALGO-EXCHANGE|52=20171128-07:20:23.705|56=HSBC|10=184|
8=FIX.4.2|9=61|35=0|34=23|49=HSBC|52=20171128-07:20:23.707|56=ALGO-EXCHANGE|10=186|
8=FIX.4.2|9=61|35=0|34=24|49=ALGO-EXCHANGE|52=20171128-07:20:28.705|56=HSBC|10=190|
8=FIX.4.2|9=61|35=0|34=24|49=HSBC|52=20171128-07:20:29.388|56=ALGO-EXCHANGE|10=198|
8=FIX.4.2|9=61|35=0|34=25|49=ALGO-EXCHANGE|52=20171128-07:20:33.705|56=HSBC|10=187|
8=FIX.4.2|9=61|35=0|34=25|49=HSBC|52=20171128-07:20:34.390|56=ALGO-EXCHANGE|10=188|
8=FIX.4.2|9=61|35=0|34=26|49=ALGO-EXCHANGE|52=20171128-07:20:39.704|56=HSBC|10=193|
8=FIX.4.2|9=61|35=0|34=26|49=HSBC|52=20171128-07:20:39.706|56=ALGO-EXCHANGE|10=195|
8=FIX.4.2|9=61|35=0|34=27|49=ALGO-EXCHANGE|52=20171128-07:20:44.705|56=HSBC|10=191|
8=FIX.4.2|9=61|35=0|34=27|49=HSBC|52=20171128-07:20:44.706|56=ALGO-EXCHANGE|10=192|
8=FIX.4.2|9=61|35=0|34=28|49=ALGO-EXCHANGE|52=20171128-07:20:49.705|56=HSBC|10=197|
8=FIX.4.2|9=61|35=0|34=28|49=HSBC|52=20171128-07:20:49.707|56=ALGO-EXCHANGE|10=199|
8=FIX.4.2|9=61|35=0|34=29|49=HSBC|52=20171128-07:20:55.389|56=ALGO-EXCHANGE|10=203|
8=FIX.4.2|9=61|35=0|34=29|49=ALGO-EXCHANGE|52=20171128-07:20:55.392|56=HSBC|10=197|
8=FIX.4.2|9=61|35=0|34=30|49=ALGO-EXCHANGE|52=20171128-07:21:00.705|56=HSBC|10=178|
8=FIX.4.2|9=61|35=0|34=30|49=HSBC|52=20171128-07:21:00.706|56=ALGO-EXCHANGE|10=179|
8=FIX.4.2|9=61|35=0|34=31|49=HSBC|52=20171128-07:21:06.389|56=ALGO-EXCHANGE|10=193|
8=FIX.4.2|9=61|35=0|34=31|49=ALGO-EXCHANGE|52=20171128-07:21:06.391|56=HSBC|10=186|
8=FIX.4.2|9=61|35=0|34=32|49=ALGO-EXCHANGE|52=20171128-07:21:11.704|56=HSBC|10=181|
8=FIX.4.2|9=61|35=0|34=32|49=HSBC|52=20171128-07:21:11.705|56=ALGO-EXCHANGE|10=182|
8=FIX.4.2|9=61|35=0|34=33|49=ALGO-EXCHANGE|52=20171128-07:21:16.704|56=HSBC|10=187|
8=FIX.4.2|9=61|35=0|34=33|49=HSBC|52=20171128-07:21:16.705|56=ALGO-EXCHANGE|10=188|
8=FIX.4.2|9=61|35=0|34=34|49=ALGO-EXCHANGE|52=20171128-07:21:21.704|56=HSBC|10=184|
8=FIX.4.2|9=61|35=0|34=34|49=HSBC|52=20171128-07:21:21.705|56=ALGO-EXCHANGE|10=185|
8=FIX.4.2|9=61|35=0|34=35|49=ALGO-EXCHANGE|52=20171128-07:21:26.704|56=HSBC|10=190|
8=FIX.4.2|9=61|35=0|34=35|49=HSBC|52=20171128-07:21:26.706|56=ALGO-EXCHANGE|10=192|
8=FIX.4.2|9=61|35=0|34=36|49=HSBC|52=20171128-07:21:32.388|56=ALGO-EXCHANGE|10=196|
8=FIX.4.2|9=61|35=0|34=36|49=ALGO-EXCHANGE|52=20171128-07:21:32.389|56=HSBC|10=197|
8=FIX.4.2|9=61|35=0|34=37|49=HSBC|52=20171128-07:21:37.388|56=ALGO-EXCHANGE|10=202|
8=FIX.4.2|9=61|35=0|34=37|49=ALGO-EXCHANGE|52=20171128-07:21:37.390|56=HSBC|10=195|
8=FIX.4.2|9=61|35=0|34=38|49=ALGO-EXCHANGE|52=20171128-07:21:42.703|56=HSBC|10=190|
8=FIX.4.2|9=61|35=0|34=38|49=HSBC|52=20171128-07:21:42.704|56=ALGO-EXCHANGE|10=191|
8=FIX.4.2|9=61|35=0|34=39|49=ALGO-EXCHANGE|52=20171128-07:21:47.705|56=HSBC|10=198|
8=FIX.4.2|9=61|35=0|34=39|49=HSBC|52=20171128-07:21:47.706|56=ALGO-EXCHANGE|10=199|
8=FIX.4.2|9=61|35=0|34=40|49=HSBC|52=20171128-07:21:53.388|56=ALGO-EXCHANGE|10=194|
8=FIX.4.2|9=61|35=0|34=40|49=ALGO-EXCHANGE|52=20171128-07:21:53.390|56=HSBC|10=187|
8=FIX.4.2|9=61|35=0|34=41|49=HSBC|52=20171128-07:21:58.388|56=ALGO-EXCHANGE|10=200|
8=FIX.4.2|9=61|35=0|34=41|49=ALGO-EXCHANGE|52=20171128-07:21:58.390|56=HSBC|10=193|
8=FIX.4.2|9=61|35=0|34=42|49=HSBC|52=20171128-07:22:03.389|56=ALGO-EXCHANGE|10=193|
8=FIX.4.2|9=61|35=0|34=42|49=ALGO-EXCHANGE|52=20171128-07:22:03.391|56=HSBC|10=186|
8=FIX.4.2|9=61|35=0|34=43|49=HSBC|52=20171128-07:22:08.389|56=ALGO-EXCHANGE|10=199|
8=FIX.4.2|9=61|35=0|34=43|49=ALGO-EXCHANGE|52=20171128-07:22:08.391|56=HSBC|10=192|
8=FIX.4.2|9=61|35=0|34=44|49=HSBC|52=20171128-07:22:13.389|56=ALGO-EXCHANGE|10=196|
8=FIX.4.2|9=61|35=0|34=44|49=ALGO-EXCHANGE|52=20171128-07:22:13.705|56=HSBC|10=188|
8=FIX.4.2|9=61|35=0|34=45|49=HSBC|52=20171128-07:22:18.390|56=ALGO-EXCHANGE|10=194|
8=FIX.4.2|9=61|35=0|34=45|49=ALGO-EXCHANGE|52=20171128-07:22:19.704|56=HSBC|10=194|
8=FIX.4.2|9=61|35=0|34=46|49=HSBC|52=20171128-07:22:24.389|56=ALGO-EXCHANGE|10=200|
8=FIX.4.2|9=61|35=0|34=46|49=ALGO-EXCHANGE|52=20171128-07:22:24.705|56=HSBC|10=192|
8=FIX.4.2|9=61|35=0|34=47|49=HSBC|52=20171128-07:22:29.389|56=ALGO-EXCHANGE|10=206|
8=FIX.4.2|9=61|35=0|34=47|49=ALGO-EXCHANGE|52=20171128-07:22:29.705|56=HSBC|10=198|
8=FIX.4.2|9=61|35=0|34=48|49=HSBC|52=20171128-07:22:34.390|56=ALGO-EXCHANGE|10=195|
8=FIX.4.2|9=61|35=0|34=48|49=ALGO-EXCHANGE|52=20171128-07:22:34.705|56=HSBC|10=195|
8=FIX.4.2|9=61|35=0|34=49|49=HSBC|52=20171128-07:22:39.390|56=ALGO-EXCHANGE|10=201|
8=FIX.4.2|9=61|35=0|34=49|49=ALGO-EXCHANGE|52=20171128-07:22:39.706|56=HSBC|10=202|
8=FIX.4.2|9=61|35=0|34=50|49=ALGO-EXCHANGE|52=20171128-07:22:44.706|56=HSBC|10=190|
8=FIX.4.2|9=61|35=0|34=50|49=HSBC|52=20171128-07:22:44.708|56=ALGO-EXCHANGE|10=192|
8=FIX.4.2|9=61|35=0|34=51|49=HSBC|52=20171128-07:22:50.389|56=ALGO-EXCHANGE|10=195|
8=FIX.4.2|9=61|35=0|34=51|49=ALGO-EXCHANGE|52=20171128-07:22:50.391|56=HSBC|10=188|
8=FIX.4.2|9=61|35=0|34=52|49=HSBC|52=20171128-07:22:55.390|56=ALGO-EXCHANGE|10=193|
8=FIX.4.2|9=61|35=0|34=52|49=ALGO-EXCHANGE|52=20171128-07:22:55.392|56=HSBC|10=195|
8=FIX.4.2|9=61|35=0|34=53|49=HSBC|52=20171128-07:23:00.391|56=ALGO-EXCHANGE|10=186|
8=FIX.4.2|9=61|35=0|34=53|49=ALGO-EXCHANGE|52=20171128-07:23:00.394|56=HSBC|10=189|
8=FIX.4.2|9=61|35=0|34=54|49=HSBC|52=20171128-07:23:05.391|56=ALGO-EXCHANGE|10=192|
8=FIX.4.2|9=61|35=0|34=54|49=ALGO-EXCHANGE|52=20171128-07:23:05.706|56=HSBC|10=192|
8=FIX.4.2|9=61|35=0|34=55|49=HSBC|52=20171128-07:23:10.391|56=ALGO-EXCHANGE|10=189|
8=FIX.4.2|9=61|35=0|34=55|49=ALGO-EXCHANGE|52=20171128-07:23:10.706|56=HSBC|10=189|
8=FIX.4.2|9=61|35=0|34=56|49=HSBC|52=20171128-07:23:15.391|56=ALGO-EXCHANGE|10=195|
8=FIX.4.2|9=61|35=0|34=56|49=ALGO-EXCHANGE|52=20171128-07:23:15.706|56=HSBC|10=195|
8=FIX.4.2|9=61|35=0|34=57|49=HSBC|52=20171128-07:23:20.392|56=ALGO-EXCHANGE|10=193|
8=FIX.4.2|9=61|35=0|34=57|49=ALGO-EXCHANGE|52=20171128-07:23:20.706|56=HSBC|10=192|
8=FIX.4.2|9=61|35=0|34=58|49=ALGO-EXCHANGE|52=20171128-07:23:25.707|56=HSBC|10=199|
8=FIX.4.2|9=61|35=0|34=58|49=HSBC|52=20171128-07:23:25.708|56=ALGO-EXCHANGE|10=200|
8=FIX.4.2|9=61|35=0|34=59|49=ALGO-EXCHANGE|52=20171128-07:23:30.707|56=HSBC|10=196|
8=FIX.4.2|9=61|35=0|34=59|49=HSBC|52=20171128-07:23:30.708|56=ALGO-EXCHANGE|10=197|
8=FIX.4.2|9=61|35=0|34=60|49=ALGO-EXCHANGE|52=20171128-07:23:35.707|56=HSBC|10=193|
8=FIX.4.2|9=61|35=0|34=60|49=HSBC|52=20171128-07:23:35.709|56=ALGO-EXCHANGE|10=195|
8=FIX.4.2|9=61|35=0|34=61|49=ALGO-EXCHANGE|52=20171128-07:23:40.708|56=HSBC|10=191|
8=FIX.4.2|9=61|35=0|34=61|49=HSBC|52=20171128-07:23:40.709|56=ALGO-EXCHANGE|10=192|
8=FIX.4.2|9=61|35=0|34=62|49=HSBC|52=20171128-07:23:46.392|56=ALGO-EXCHANGE|10=197|
8=FIX.4.2|9=61|35=0|34=62|49=ALGO-EXCHANGE|52=20171128-07:23:46.395|56=HSBC|10=200|
8=FIX.4.2|9=61|35=0|34=63|49=HSBC|52=20171128-07:23:51.392|56=ALGO-EXCHANGE|10=194|
8=FIX.4.2|9=61|35=0|34=63|49=ALGO-EXCHANGE|52=20171128-07:23:51.708|56=HSBC|10=195|
8=FIX.4.2|9=61|35=0|34=64|49=HSBC|52=20171128-07:23:56.393|56=ALGO-EXCHANGE|10=201|
8=FIX.4.2|9=61|35=0|34=64|49=ALGO-EXCHANGE|52=20171128-07:23:56.709|56=HSBC|10=202|
8=FIX.4.2|9=61|35=0|34=65|49=HSBC|52=20171128-07:24:02.392|56=ALGO-EXCHANGE|10=193|
8=FIX.4.2|9=61|35=0|34=65|49=ALGO-EXCHANGE|52=20171128-07:24:02.394|56=HSBC|10=195|
8=FIX.4.2|9=61|35=0|34=66|49=HSBC|52=20171128-07:24:07.392|56=ALGO-EXCHANGE|10=199|
8=FIX.4.2|9=61|35=0|34=66|49=ALGO-EXCHANGE|52=20171128-07:24:07.708|56=HSBC|10=200|
8=FIX.4.2|9=61|35=0|34=67|49=HSBC|52=20171128-07:24:12.392|56=ALGO-EXCHANGE|10=196|
8=FIX.4.2|9=61|35=0|34=67|49=ALGO-EXCHANGE|52=20171128-07:24:12.708|56=HSBC|10=197|
8=FIX.4.2|9=61|35=0|34=68|49=HSBC|52=20171128-07:24:17.393|56=ALGO-EXCHANGE|10=203|
8=FIX.4.2|9=61|35=0|34=68|49=ALGO-EXCHANGE|52=20171128-07:24:17.708|56=HSBC|10=203|
8=FIX.4.2|9=61|35=0|34=69|49=HSBC|52=20171128-07:24:22.394|56=ALGO-EXCHANGE|10=201|
8=FIX.4.2|9=61|35=0|34=69|49=ALGO-EXCHANGE|52=20171128-07:24:22.709|56=HSBC|10=201|
8=FIX.4.2|9=61|35=0|34=70|49=ALGO-EXCHANGE|52=20171128-07:24:27.709|56=HSBC|10=198|
8=FIX.4.2|9=61|35=0|34=70|49=HSBC|52=20171128-07:24:27.711|56=ALGO-EXCHANGE|10=191|
8=FIX.4.2|9=61|35=0|34=71|49=ALGO-EXCHANGE|52=20171128-07:24:32.709|56=HSBC|10=195|
8=FIX.4.2|9=61|35=0|34=71|49=HSBC|52=20171128-07:24:33.393|56=ALGO-EXCHANGE|10=195|
8=FIX.4.2|9=61|35=0|34=72|49=ALGO-EXCHANGE|52=20171128-07:24:37.709|56=HSBC|10=201|
8=FIX.4.2|9=61|35=0|34=72|49=HSBC|52=20171128-07:24:38.393|56=ALGO-EXCHANGE|10=201|
8=FIX.4.2|9=61|35=0|34=73|49=ALGO-EXCHANGE|52=20171128-07:24:42.710|56=HSBC|10=190|
8=FIX.4.2|9=61|35=0|34=73|49=HSBC|52=20171128-07:24:43.393|56=ALGO-EXCHANGE|10=198|
8=FIX.4.2|9=61|35=0|34=74|49=ALGO-EXCHANGE|52=20171128-07:24:47.710|56=HSBC|10=196|
8=FIX.4.2|9=61|35=0|34=74|49=HSBC|52=20171128-07:24:48.394|56=ALGO-EXCHANGE|10=205|
8=FIX.4.2|9=61|35=0|34=75|49=ALGO-EXCHANGE|52=20171128-07:24:52.710|56=HSBC|10=193|
8=FIX.4.2|9=61|35=0|34=75|49=HSBC|52=20171128-07:24:53.394|56=ALGO-EXCHANGE|10=202|
8=FIX.4.2|9=61|35=0|34=76|49=HSBC|52=20171128-07:24:58.395|56=ALGO-EXCHANGE|10=209|
8=FIX.4.2|9=61|35=0|34=76|49=ALGO-EXCHANGE|52=20171128-07:24:58.396|56=HSBC|10=210|
8=FIX.4.2|9=61|35=0|34=77|49=ALGO-EXCHANGE|52=20171128-07:25:03.710|56=HSBC|10=192|
8=FIX.4.2|9=61|35=0|34=77|49=HSBC|52=20171128-07:25:03.711|56=ALGO-EXCHANGE|10=193|
8=FIX.4.2|9=61|35=0|34=78|49=ALGO-EXCHANGE|52=20171128-07:25:08.710|56=HSBC|10=198|
8=FIX.4.2|9=61|35=0|34=78|49=HSBC|52=20171128-07:25:08.711|56=ALGO-EXCHANGE|10=199|
8=FIX.4.2|9=61|35=0|34=79|49=ALGO-EXCHANGE|52=20171128-07:25:13.710|56=HSBC|10=195|
8=FIX.4.2|9=61|35=0|34=79|49=HSBC|52=20171128-07:25:13.711|56=ALGO-EXCHANGE|10=196|
8=FIX.4.2|9=61|35=0|34=80|49=ALGO-EXCHANGE|52=20171128-07:25:18.710|56=HSBC|10=192|
8=FIX.4.2|9=61|35=0|34=80|49=HSBC|52=20171128-07:25:18.712|56=ALGO-EXCHANGE|10=194|
8=FIX.4.2|9=61|35=0|34=81|49=ALGO-EXCHANGE|52=20171128-07:25:23.711|56=HSBC|10=190|
8=FIX.4.2|9=61|35=0|34=81|49=HSBC|52=20171128-07:25:23.712|56=ALGO-EXCHANGE|10=191|
8=FIX.4.2|9=61|35=0|34=82|49=ALGO-EXCHANGE|52=20171128-07:25:28.711|56=HSBC|10=196|
8=FIX.4.2|9=61|35=0|34=82|49=HSBC|52=20171128-07:25:28.712|56=ALGO-EXCHANGE|10=197|
8=FIX.4.2|9=61|35=0|34=83|49=ALGO-EXCHANGE|52=20171128-07:25:33.711|56=HSBC|10=193|
8=FIX.4.2|9=61|35=0|34=83|49=HSBC|52=20171128-07:25:33.712|56=ALGO-EXCHANGE|10=194|
8=FIX.4.2|9=61|35=0|34=84|49=ALGO-EXCHANGE|52=20171128-07:25:38.711|56=HSBC|10=199|
8=FIX.4.2|9=61|35=0|34=84|49=HSBC|52=20171128-07:25:38.714|56=ALGO-EXCHANGE|10=202|
8=FIX.4.2|9=61|35=0|34=85|49=ALGO-EXCHANGE|52=20171128-07:25:43.712|56=HSBC|10=197|
8=FIX.4.2|9=61|35=0|34=85|49=HSBC|52=20171128-07:25:44.395|56=ALGO-EXCHANGE|10=205|
8=FIX.4.2|9=61|35=0|34=86|49=ALGO-EXCHANGE|52=20171128-07:25:48.712|56=HSBC|10=203|
8=FIX.4.2|9=61|35=0|34=86|49=HSBC|52=20171128-07:25:49.395|56=ALGO-EXCHANGE|10=211|
8=FIX.4.2|9=61|35=0|34=87|49=HSBC|52=20171128-07:25:54.396|56=ALGO-EXCHANGE|10=209|
8=FIX.4.2|9=61|35=0|34=87|49=ALGO-EXCHANGE|52=20171128-07:25:54.398|56=HSBC|10=211|
8=FIX.4.2|9=61|35=0|34=88|49=HSBC|52=20171128-07:25:59.397|56=ALGO-EXCHANGE|10=216|
8=FIX.4.2|9=61|35=0|34=88|49=ALGO-EXCHANGE|52=20171128-07:25:59.401|56=HSBC|10=202|
8=FIX.4.2|9=61|35=0|34=89|49=HSBC|52=20171128-07:26:04.397|56=ALGO-EXCHANGE|10=208|
8=FIX.4.2|9=61|35=0|34=89|49=ALGO-EXCHANGE|52=20171128-07:26:04.712|56=HSBC|10=199|
8=FIX.4.2|9=61|35=0|34=90|49=ALGO-EXCHANGE|52=20171128-07:26:09.712|56=HSBC|10=196|
8=FIX.4.2|9=61|35=0|34=90|49=HSBC|52=20171128-07:26:09.714|56=ALGO-EXCHANGE|10=198|
8=FIX.4.2|9=61|35=0|34=91|49=ALGO-EXCHANGE|52=20171128-07:26:14.712|56=HSBC|10=193|
8=FIX.4.2|9=61|35=0|34=91|49=HSBC|52=20171128-07:26:15.396|56=ALGO-EXCHANGE|10=202|
8=FIX.4.2|9=61|35=0|34=92|49=ALGO-EXCHANGE|52=20171128-07:26:19.712|56=HSBC|10=199|
8=FIX.4.2|9=61|35=0|34=92|49=HSBC|52=20171128-07:26:20.397|56=ALGO-EXCHANGE|10=200|
8=FIX.4.2|9=61|35=0|34=93|49=ALGO-EXCHANGE|52=20171128-07:26:24.712|56=HSBC|10=196|
8=FIX.4.2|9=61|35=0|34=93|49=HSBC|52=20171128-07:26:25.397|56=ALGO-EXCHANGE|10=206|
8=FIX.4.2|9=61|35=0|34=94|49=ALGO-EXCHANGE|52=20171128-07:26:29.712|56=HSBC|10=202|
8=FIX.4.2|9=61|35=0|34=94|49=HSBC|52=20171128-07:26:30.397|56=ALGO-EXCHANGE|10=203|
8=FIX.4.2|9=61|35=0|34=95|49=ALGO-EXCHANGE|52=20171128-07:26:34.713|56=HSBC|10=200|
8=FIX.4.2|9=61|35=0|34=95|49=HSBC|52=20171128-07:26:35.397|56=ALGO-EXCHANGE|10=209|
8=FIX.4.2|9=61|35=0|34=96|49=ALGO-EXCHANGE|52=20171128-07:26:39.713|56=HSBC|10=206|
8=FIX.4.2|9=61|35=0|34=96|49=HSBC|52=20171128-07:26:40.398|56=ALGO-EXCHANGE|10=207|
8=FIX.4.2|9=61|35=0|34=97|49=ALGO-EXCHANGE|52=20171128-07:26:44.713|56=HSBC|10=203|
8=FIX.4.2|9=61|35=0|34=97|49=HSBC|52=20171128-07:26:45.398|56=ALGO-EXCHANGE|10=213|
8=FIX.4.2|9=61|35=0|34=98|49=ALGO-EXCHANGE|52=20171128-07:26:49.713|56=HSBC|10=209|
8=FIX.4.2|9=61|35=0|34=98|49=HSBC|52=20171128-07:26:51.398|56=ALGO-EXCHANGE|10=211|
8=FIX.4.2|9=61|35=0|34=99|49=ALGO-EXCHANGE|52=20171128-07:26:54.714|56=HSBC|10=207|
8=FIX.4.2|9=61|35=0|34=99|49=HSBC|52=20171128-07:26:56.398|56=ALGO-EXCHANGE|10=217|
8=FIX.4.2|9=62|35=0|34=100|49=ALGO-EXCHANGE|52=20171128-07:27:00.713|56=HSBC|10=230|
8=FIX.4.2|9=62|35=0|34=100|49=HSBC|52=20171128-07:27:01.398|56=ALGO-EXCHANGE|10=240|
8=FIX.4.2|9=62|35=0|34=101|49=ALGO-EXCHANGE|52=20171128-07:27:05.714|56=HSBC|10=237|
8=FIX.4.2|9=62|35=0|34=101|49=HSBC|52=20171128-07:27:06.398|56=ALGO-EXCHANGE|10=246|
8=FIX.4.2|9=62|35=0|34=102|49=ALGO-EXCHANGE|52=20171128-07:27:10.714|56=HSBC|10=234|
8=FIX.4.2|9=62|35=0|34=102|49=HSBC|52=20171128-07:27:11.398|56=ALGO-EXCHANGE|10=243|
8=FIX.4.2|9=62|35=0|34=103|49=HSBC|52=20171128-07:27:16.398|56=ALGO-EXCHANGE|10=249|
8=FIX.4.2|9=62|35=0|34=103|49=ALGO-EXCHANGE|52=20171128-07:27:16.400|56=HSBC|10=233|
8=FIX.4.2|9=62|35=0|34=104|49=HSBC|52=20171128-07:27:21.398|56=ALGO-EXCHANGE|10=246|
8=FIX.4.2|9=62|35=0|34=104|49=ALGO-EXCHANGE|52=20171128-07:27:21.400|56=HSBC|10=230|
8=FIX.4.2|9=62|35=0|34=105|49=HSBC|52=20171128-07:27:26.398|56=ALGO-EXCHANGE|10=252|
8=FIX.4.2|9=62|35=0|34=105|49=ALGO-EXCHANGE|52=20171128-07:27:26.401|56=HSBC|10=237|
8=FIX.4.2|9=62|35=0|34=106|49=HSBC|52=20171128-07:27:31.398|56=ALGO-EXCHANGE|10=249|
8=FIX.4.2|9=62|35=0|34=106|49=ALGO-EXCHANGE|52=20171128-07:27:31.401|56=HSBC|10=234|
8=FIX.4.2|9=62|35=0|34=107|49=HSBC|52=20171128-07:27:36.398|56=ALGO-EXCHANGE|10=255|
8=FIX.4.2|9=62|35=0|34=107|49=ALGO-EXCHANGE|52=20171128-07:27:36.713|56=HSBC|10=246|
8=FIX.4.2|9=62|35=0|34=108|49=HSBC|52=20171128-07:27:41.399|56=ALGO-EXCHANGE|10=253|
8=FIX.4.2|9=62|35=0|34=108|49=ALGO-EXCHANGE|52=20171128-07:27:41.714|56=HSBC|10=244|
8=FIX.4.2|9=62|35=0|34=109|49=HSBC|52=20171128-07:27:46.399|56=ALGO-EXCHANGE|10=003|
8=FIX.4.2|9=62|35=0|34=109|49=ALGO-EXCHANGE|52=20171128-07:27:46.714|56=HSBC|10=250|
8=FIX.4.2|9=62|35=0|34=110|49=ALGO-EXCHANGE|52=20171128-07:27:51.714|56=HSBC|10=238|
8=FIX.4.2|9=62|35=0|34=110|49=HSBC|52=20171128-07:27:51.715|56=ALGO-EXCHANGE|10=239|
8=FIX.4.2|9=62|35=0|34=111|49=ALGO-EXCHANGE|52=20171128-07:27:56.715|56=HSBC|10=245|
8=FIX.4.2|9=62|35=0|34=111|49=HSBC|52=20171128-07:27:56.717|56=ALGO-EXCHANGE|10=247|
8=FIX.4.2|9=62|35=0|34=112|49=HSBC|52=20171128-07:28:02.398|56=ALGO-EXCHANGE|10=245|
8=FIX.4.2|9=62|35=0|34=112|49=ALGO-EXCHANGE|52=20171128-07:28:02.400|56=HSBC|10=229|
8=FIX.4.2|9=62|35=0|34=113|49=HSBC|52=20171128-07:28:07.399|56=ALGO-EXCHANGE|10=252|
8=FIX.4.2|9=62|35=0|34=113|49=ALGO-EXCHANGE|52=20171128-07:28:07.403|56=HSBC|10=238|
8=FIX.4.2|9=62|35=0|34=114|49=ALGO-EXCHANGE|52=20171128-07:28:12.714|56=HSBC|10=240|
8=FIX.4.2|9=62|35=0|34=114|49=HSBC|52=20171128-07:28:12.716|56=ALGO-EXCHANGE|10=242|
8=FIX.4.2|9=62|35=0|34=115|49=ALGO-EXCHANGE|52=20171128-07:28:17.715|56=HSBC|10=247|
8=FIX.4.2|9=62|35=0|34=115|49=HSBC|52=20171128-07:28:17.717|56=ALGO-EXCHANGE|10=249|
8=FIX.4.2|9=62|35=0|34=116|49=ALGO-EXCHANGE|52=20171128-07:28:22.715|56=HSBC|10=244|
8=FIX.4.2|9=62|35=0|34=116|49=HSBC|52=20171128-07:28:23.399|56=ALGO-EXCHANGE|10=253|
8=FIX.4.2|9=62|35=0|34=117|49=ALGO-EXCHANGE|52=20171128-07:28:27.715|56=HSBC|10=250|
8=FIX.4.2|9=62|35=0|34=117|49=HSBC|52=20171128-07:28:28.399|56=ALGO-EXCHANGE|10=003|
8=FIX.4.2|9=62|35=0|34=118|49=ALGO-EXCHANGE|52=20171128-07:28:33.715|56=HSBC|10=248|
8=FIX.4.2|9=62|35=0|34=118|49=HSBC|52=20171128-07:28:33.716|56=ALGO-EXCHANGE|10=249|
8=FIX.4.2|9=62|35=0|34=119|49=HSBC|52=20171128-07:28:39.399|56=ALGO-EXCHANGE|10=007|
8=FIX.4.2|9=62|35=0|34=119|49=ALGO-EXCHANGE|52=20171128-07:28:39.401|56=HSBC|10=247|
8=FIX.4.2|9=62|35=0|34=120|49=HSBC|52=20171128-07:28:44.399|56=ALGO-EXCHANGE|10=251|
8=FIX.4.2|9=62|35=0|34=120|49=ALGO-EXCHANGE|52=20171128-07:28:44.402|56=HSBC|10=236|
8=FIX.4.2|9=62|35=0|34=121|49=HSBC|52=20171128-07:28:49.399|56=ALGO-EXCHANGE|10=001|
8=FIX.4.2|9=62|35=0|34=121|49=ALGO-EXCHANGE|52=20171128-07:28:49.714|56=HSBC|10=248|
8=FIX.4.2|9=62|35=0|34=122|49=HSBC|52=20171128-07:28:54.400|56=ALGO-EXCHANGE|10=237|
8=FIX.4.2|9=62|35=0|34=122|49=ALGO-EXCHANGE|52=20171128-07:28:54.715|56=HSBC|10=246|
8=FIX.4.2|9=62|35=0|34=123|49=HSBC|52=20171128-07:29:00.400|56=ALGO-EXCHANGE|10=230|
8=FIX.4.2|9=62|35=0|34=123|49=ALGO-EXCHANGE|52=20171128-07:29:00.405|56=HSBC|10=235|
8=FIX.4.2|9=62|35=0|34=124|49=HSBC|52=20171128-07:29:05.400|56=ALGO-EXCHANGE|10=236|
8=FIX.4.2|9=62|35=0|34=124|49=ALGO-EXCHANGE|52=20171128-07:29:05.715|56=HSBC|10=245|
8=FIX.4.2|9=62|35=0|34=125|49=HSBC|52=20171128-07:29:10.400|56=ALGO-EXCHANGE|10=233|
8=FIX.4.2|9=62|35=0|34=125|49=ALGO-EXCHANGE|52=20171128-07:29:10.715|56=HSBC|10=242|
8=FIX.4.2|9=62|35=0|34=126|49=HSBC|52=20171128-07:29:15.400|56=ALGO-EXCHANGE|10=239|
8=FIX.4.2|9=62|35=0|34=126|49=ALGO-EXCHANGE|52=20171128-07:29:15.715|56=HSBC|10=248|
8=FIX.4.2|9=62|35=0|34=127|49=HSBC|52=20171128-07:29:20.400|56=ALGO-EXCHANGE|10=236|
8=FIX.4.2|9=62|35=0|34=127|49=ALGO-EXCHANGE|52=20171128-07:29:20.715|56=HSBC|10=245|
8=FIX.4.2|9=62|35=0|34=128|49=HSBC|52=20171128-07:29:25.400|56=ALGO-EXCHANGE|10=242|
8=FIX.4.2|9=62|35=0|34=128|49=ALGO-EXCHANGE|52=20171128-07:29:25.715|56=HSBC|10=251|
8=FIX.4.2|9=62|35=0|34=129|49=HSBC|52=20171128-07:29:30.400|56=ALGO-EXCHANGE|10=239|
8=FIX.4.2|9=62|35=0|34=129|49=ALGO-EXCHANGE|52=20171128-07:29:30.716|56=HSBC|10=249|
8=FIX.4.2|9=62|35=0|34=130|49=ALGO-EXCHANGE|52=20171128-07:29:35.716|56=HSBC|10=246|
8=FIX.4.2|9=62|35=0|34=130|49=HSBC|52=20171128-07:29:35.718|56=ALGO-EXCHANGE|10=248|
8=FIX.4.2|9=62|35=0|34=131|49=HSBC|52=20171128-07:29:41.399|56=ALGO-EXCHANGE|10=251|
8=FIX.4.2|9=62|35=0|34=131|49=ALGO-EXCHANGE|52=20171128-07:29:41.400|56=HSBC|10=234|
8=FIX.4.2|9=62|35=0|34=132|49=HSBC|52=20171128-07:29:46.400|56=ALGO-EXCHANGE|10=240|
8=FIX.4.2|9=62|35=0|34=132|49=ALGO-EXCHANGE|52=20171128-07:29:46.402|56=HSBC|10=242|
8=FIX.4.2|9=62|35=0|34=133|49=HSBC|52=20171128-07:29:51.400|56=ALGO-EXCHANGE|10=237|
8=FIX.4.2|9=62|35=0|34=133|49=ALGO-EXCHANGE|52=20171128-07:29:51.716|56=HSBC|10=247|
8=FIX.4.2|9=62|35=0|34=134|49=HSBC|52=20171128-07:29:56.400|56=ALGO-EXCHANGE|10=243|
8=FIX.4.2|9=62|35=0|34=134|49=ALGO-EXCHANGE|52=20171128-07:29:56.716|56=HSBC|10=253|
8=FIX.4.2|9=62|35=0|34=135|49=HSBC|52=20171128-07:30:01.400|56=ALGO-EXCHANGE|10=226|
8=FIX.4.2|9=62|35=0|34=135|49=ALGO-EXCHANGE|52=20171128-07:30:02.716|56=HSBC|10=237|
8=FIX.4.2|9=62|35=0|34=136|49=HSBC|52=20171128-07:30:06.401|56=ALGO-EXCHANGE|10=233|
8=FIX.4.2|9=62|35=0|34=136|49=ALGO-EXCHANGE|52=20171128-07:30:07.716|56=HSBC|10=243|
8=FIX.4.2|9=62|35=0|34=137|49=HSBC|52=20171128-07:30:12.400|56=ALGO-EXCHANGE|10=230|
8=FIX.4.2|9=62|35=0|34=137|49=ALGO-EXCHANGE|52=20171128-07:30:12.716|56=HSBC|10=240|
8=FIX.4.2|9=62|35=0|34=138|49=HSBC|52=20171128-07:30:17.401|56=ALGO-EXCHANGE|10=237|
8=FIX.4.2|9=62|35=0|34=138|49=ALGO-EXCHANGE|52=20171128-07:30:17.716|56=HSBC|10=246|
8=FIX.4.2|9=62|35=0|34=139|49=HSBC|52=20171128-07:30:22.401|56=ALGO-EXCHANGE|10=234|
8=FIX.4.2|9=62|35=0|34=139|49=ALGO-EXCHANGE|52=20171128-07:30:22.717|56=HSBC|10=244|
8=FIX.4.2|9=62|35=0|34=140|49=HSBC|52=20171128-07:30:28.400|56=ALGO-EXCHANGE|10=231|
8=FIX.4.2|9=62|35=0|34=140|49=ALGO-EXCHANGE|52=20171128-07:30:28.402|56=HSBC|10=233|
8=FIX.4.2|9=62|35=0|34=141|49=HSBC|52=20171128-07:30:33.400|56=ALGO-EXCHANGE|10=228|
8=FIX.4.2|9=62|35=0|34=141|49=ALGO-EXCHANGE|52=20171128-07:30:33.402|56=HSBC|10=230|
8=FIX.4.2|9=62|35=0|34=142|49=HSBC|52=20171128-07:30:38.400|56=ALGO-EXCHANGE|10=234|
8=FIX.4.2|9=62|35=0|34=142|49=ALGO-EXCHANGE|52=20171128-07:30:38.716|56=HSBC|10=244|
8=FIX.4.2|9=62|35=0|34=143|49=HSBC|52=20171128-07:30:43.401|56=ALGO-EXCHANGE|10=232|
8=FIX.4.2|9=62|35=0|34=143|49=ALGO-EXCHANGE|52=20171128-07:30:43.717|56=HSBC|10=242|
8=FIX.4.2|9=62|35=0|34=144|49=HSBC|52=20171128-07:30:48.401|56=ALGO-EXCHANGE|10=238|
8=FIX.4.2|9=62|35=0|34=144|49=ALGO-EXCHANGE|52=20171128-07:30:49.716|56=HSBC|10=248|
8=FIX.4.2|9=62|35=0|34=145|49=HSBC|52=20171128-07:30:54.401|56=ALGO-EXCHANGE|10=236|
8=FIX.4.2|9=62|35=0|34=145|49=ALGO-EXCHANGE|52=20171128-07:30:54.717|56=HSBC|10=246|
8=FIX.4.2|9=62|35=0|34=146|49=HSBC|52=20171128-07:30:59.401|56=ALGO-EXCHANGE|10=242|
8=FIX.4.2|9=62|35=0|34=146|49=ALGO-EXCHANGE|52=20171128-07:30:59.717|56=HSBC|10=252|
8=FIX.4.2|9=62|35=0|34=147|49=HSBC|52=20171128-07:31:04.401|56=ALGO-EXCHANGE|10=234|
8=FIX.4.2|9=62|35=0|34=147|49=ALGO-EXCHANGE|52=20171128-07:31:04.717|56=HSBC|10=244|
8=FIX.4.2|9=62|35=0|34=148|49=ALGO-EXCHANGE|52=20171128-07:31:09.717|56=HSBC|10=250|
8=FIX.4.2|9=62|35=0|34=148|49=HSBC|52=20171128-07:31:09.718|56=ALGO-EXCHANGE|10=251|
8=FIX.4.2|9=62|35=0|34=149|49=ALGO-EXCHANGE|52=20171128-07:31:14.717|56=HSBC|10=247|
8=FIX.4.2|9=62|35=0|34=149|49=HSBC|52=20171128-07:31:14.718|56=ALGO-EXCHANGE|10=248|
8=FIX.4.2|9=62|35=0|34=150|49=ALGO-EXCHANGE|52=20171128-07:31:19.717|56=HSBC|10=244|
8=FIX.4.2|9=62|35=0|34=150|49=HSBC|52=20171128-07:31:19.719|56=ALGO-EXCHANGE|10=246|
8=FIX.4.2|9=62|35=0|34=151|49=ALGO-EXCHANGE|52=20171128-07:31:24.717|56=HSBC|10=241|
8=FIX.4.2|9=62|35=0|34=151|49=HSBC|52=20171128-07:31:25.401|56=ALGO-EXCHANGE|10=232|
8=FIX.4.2|9=62|35=0|34=152|49=HSBC|52=20171128-07:31:30.401|56=ALGO-EXCHANGE|10=229|
8=FIX.4.2|9=62|35=0|34=152|49=ALGO-EXCHANGE|52=20171128-07:31:30.402|56=HSBC|10=230|
8=FIX.4.2|9=62|35=0|34=153|49=HSBC|52=20171128-07:31:35.401|56=ALGO-EXCHANGE|10=235|
8=FIX.4.2|9=62|35=0|34=153|49=ALGO-EXCHANGE|52=20171128-07:31:35.403|56=HSBC|10=237|
8=FIX.4.2|9=62|35=0|34=154|49=HSBC|52=20171128-07:31:40.402|56=ALGO-EXCHANGE|10=233|
8=FIX.4.2|9=62|35=0|34=154|49=ALGO-EXCHANGE|52=20171128-07:31:40.403|56=HSBC|10=234|
8=FIX.4.2|9=62|35=0|34=155|49=ALGO-EXCHANGE|52=20171128-07:31:45.716|56=HSBC|10=247|
8=FIX.4.2|9=62|35=0|34=155|49=HSBC|52=20171128-07:31:45.717|56=ALGO-EXCHANGE|10=248|
8=FIX.4.2|9=62|35=0|34=156|49=ALGO-EXCHANGE|52=20171128-07:31:50.717|56=HSBC|10=245|
8=FIX.4.2|9=62|35=0|34=156|49=HSBC|52=20171128-07:31:50.718|56=ALGO-EXCHANGE|10=246|
8=FIX.4.2|9=62|35=0|34=157|49=ALGO-EXCHANGE|52=20171128-07:31:55.717|56=HSBC|10=251|
8=FIX.4.2|9=62|35=0|34=157|49=HSBC|52=20171128-07:31:55.718|56=ALGO-EXCHANGE|10=252|
8=FIX.4.2|9=62|35=0|34=158|49=ALGO-EXCHANGE|52=20171128-07:32:00.717|56=HSBC|10=243|
8=FIX.4.2|9=62|35=0|34=158|49=HSBC|52=20171128-07:32:00.718|56=ALGO-EXCHANGE|10=244|
8=FIX.4.2|9=62|35=0|34=159|49=ALGO-EXCHANGE|52=20171128-07:32:05.718|56=HSBC|10=250|
8=FIX.4.2|9=62|35=0|34=159|49=HSBC|52=20171128-07:32:05.720|56=ALGO-EXCHANGE|10=243|
8=FIX.4.2|9=62|35=0|34=160|49=ALGO-EXCHANGE|52=20171128-07:32:10.718|56=HSBC|10=238|
8=FIX.4.2|9=62|35=0|34=160|49=HSBC|52=20171128-07:32:11.402|56=ALGO-EXCHANGE|10=229|
8=FIX.4.2|9=62|35=0|34=161|49=HSBC|52=20171128-07:32:16.403|56=ALGO-EXCHANGE|10=236|
8=FIX.4.2|9=62|35=0|34=161|49=ALGO-EXCHANGE|52=20171128-07:32:16.403|56=HSBC|10=236|
8=FIX.4.2|9=62|35=0|34=162|49=ALGO-EXCHANGE|52=20171128-07:32:21.717|56=HSBC|10=241|
8=FIX.4.2|9=62|35=0|34=162|49=HSBC|52=20171128-07:32:21.718|56=ALGO-EXCHANGE|10=242|
8=FIX.4.2|9=62|35=0|34=163|49=ALGO-EXCHANGE|52=20171128-07:32:26.717|56=HSBC|10=247|
8=FIX.4.2|9=62|35=0|34=163|49=HSBC|52=20171128-07:32:26.718|56=ALGO-EXCHANGE|10=248|
8=FIX.4.2|9=62|35=0|34=164|49=ALGO-EXCHANGE|52=20171128-07:32:31.717|56=HSBC|10=244|
8=FIX.4.2|9=62|35=0|34=164|49=HSBC|52=20171128-07:32:31.720|56=ALGO-EXCHANGE|10=238|
8=FIX.4.2|9=62|35=0|34=165|49=ALGO-EXCHANGE|52=20171128-07:32:36.718|56=HSBC|10=251|
8=FIX.4.2|9=62|35=0|34=165|49=HSBC|52=20171128-07:32:37.402|56=ALGO-EXCHANGE|10=242|
8=FIX.4.2|9=62|35=0|34=166|49=ALGO-EXCHANGE|52=20171128-07:32:42.717|56=HSBC|10=248|
8=FIX.4.2|9=62|35=0|34=166|49=HSBC|52=20171128-07:32:42.718|56=ALGO-EXCHANGE|10=249|
8=FIX.4.2|9=62|35=0|34=167|49=ALGO-EXCHANGE|52=20171128-07:32:47.718|56=HSBC|10=255|
8=FIX.4.2|9=62|35=0|34=167|49=HSBC|52=20171128-07:32:47.719|56=ALGO-EXCHANGE|10=000|
8=FIX.4.2|9=62|35=0|34=168|49=HSBC|52=20171128-07:32:53.402|56=ALGO-EXCHANGE|10=243|
8=FIX.4.2|9=62|35=0|34=168|49=ALGO-EXCHANGE|52=20171128-07:32:53.404|56=HSBC|10=245|
8=FIX.4.2|9=62|35=0|34=169|49=HSBC|52=20171128-07:32:58.402|56=ALGO-EXCHANGE|10=249|
8=FIX.4.2|9=62|35=0|34=169|49=ALGO-EXCHANGE|52=20171128-07:32:58.717|56=HSBC|10=002|
8=FIX.4.2|9=62|35=0|34=170|49=HSBC|52=20171128-07:33:03.402|56=ALGO-EXCHANGE|10=232|
8=FIX.4.2|9=62|35=0|34=170|49=ALGO-EXCHANGE|52=20171128-07:33:03.718|56=HSBC|10=242|
8=FIX.4.2|9=62|35=0|34=171|49=HSBC|52=20171128-07:33:08.402|56=ALGO-EXCHANGE|10=238|
8=FIX.4.2|9=62|35=0|34=171|49=ALGO-EXCHANGE|52=20171128-07:33:09.718|56=HSBC|10=249|
8=FIX.4.2|9=62|35=0|34=172|49=HSBC|52=20171128-07:33:14.402|56=ALGO-EXCHANGE|10=236|
8=FIX.4.2|9=62|35=0|34=172|49=ALGO-EXCHANGE|52=20171128-07:33:14.718|56=HSBC|10=246|
8=FIX.4.2|9=62|35=0|34=173|49=HSBC|52=20171128-07:33:19.403|56=ALGO-EXCHANGE|10=243|
8=FIX.4.2|9=62|35=0|34=173|49=ALGO-EXCHANGE|52=20171128-07:33:19.718|56=HSBC|10=252|
8=FIX.4.2|9=62|35=0|34=174|49=HSBC|52=20171128-07:33:24.403|56=ALGO-EXCHANGE|10=240|
8=FIX.4.2|9=62|35=0|34=174|49=ALGO-EXCHANGE|52=20171128-07:33:25.717|56=HSBC|10=249|
8=FIX.4.2|9=62|35=0|34=175|49=HSBC|52=20171128-07:33:29.403|56=ALGO-EXCHANGE|10=246|
8=FIX.4.2|9=62|35=0|34=175|49=ALGO-EXCHANGE|52=20171128-07:33:30.718|56=HSBC|10=247|
8=FIX.4.2|9=62|35=0|34=176|49=HSBC|52=20171128-07:33:35.402|56=ALGO-EXCHANGE|10=243|
8=FIX.4.2|9=62|35=0|34=176|49=ALGO-EXCHANGE|52=20171128-07:33:35.718|56=HSBC|10=253|
8=FIX.4.2|9=62|35=0|34=177|49=HSBC|52=20171128-07:33:40.523|56=ALGO-EXCHANGE|10=244|
8=FIX.4.2|9=62|35=0|34=177|49=ALGO-EXCHANGE|52=20171128-07:33:40.718|56=HSBC|10=250|
8=FIX.4.2|9=62|35=0|34=178|49=ALGO-EXCHANGE|52=20171128-07:33:45.718|56=HSBC|10=000|
8=FIX.4.2|9=62|35=0|34=178|49=HSBC|52=20171128-07:33:45.720|56=ALGO-EXCHANGE|10=249|
8=FIX.4.2|9=62|35=0|34=179|49=ALGO-EXCHANGE|52=20171128-07:33:50.718|56=HSBC|10=253|
8=FIX.4.2|9=62|35=0|34=179|49=HSBC|52=20171128-07:33:51.402|56=ALGO-EXCHANGE|10=244|
8=FIX.4.2|9=62|35=0|34=180|49=HSBC|52=20171128-07:33:56.402|56=ALGO-EXCHANGE|10=241|
8=FIX.4.2|9=62|35=0|34=180|49=ALGO-EXCHANGE|52=20171128-07:33:56.404|56=HSBC|10=243|
8=FIX.4.2|9=62|35=0|34=181|49=HSBC|52=20171128-07:34:01.402|56=ALGO-EXCHANGE|10=233|
8=FIX.4.2|9=62|35=0|34=181|49=ALGO-EXCHANGE|52=20171128-07:34:01.718|56=HSBC|10=243|
8=FIX.4.2|9=62|35=0|34=182|49=HSBC|52=20171128-07:34:06.402|56=ALGO-EXCHANGE|10=239|
8=FIX.4.2|9=62|35=0|34=182|49=ALGO-EXCHANGE|52=20171128-07:34:06.719|56=HSBC|10=250|
8=FIX.4.2|9=62|35=0|34=183|49=HSBC|52=20171128-07:34:11.403|56=ALGO-EXCHANGE|10=237|
8=FIX.4.2|9=62|35=0|34=183|49=ALGO-EXCHANGE|52=20171128-07:34:11.719|56=HSBC|10=247|
8=FIX.4.2|9=62|35=0|34=184|49=HSBC|52=20171128-07:34:16.403|56=ALGO-EXCHANGE|10=243|
8=FIX.4.2|9=62|35=0|34=184|49=ALGO-EXCHANGE|52=20171128-07:34:17.718|56=HSBC|10=253|
8=FIX.4.2|9=62|35=0|34=185|49=HSBC|52=20171128-07:34:22.403|56=ALGO-EXCHANGE|10=241|
8=FIX.4.2|9=62|35=0|34=185|49=ALGO-EXCHANGE|52=20171128-07:34:22.724|56=HSBC|10=247|
8=FIX.4.2|9=62|35=0|34=186|49=HSBC|52=20171128-07:34:27.403|56=ALGO-EXCHANGE|10=247|
8=FIX.4.2|9=62|35=0|34=186|49=ALGO-EXCHANGE|52=20171128-07:34:28.718|56=HSBC|10=001|
8=FIX.4.2|9=62|35=0|34=187|49=HSBC|52=20171128-07:34:32.403|56=ALGO-EXCHANGE|10=244|
8=FIX.4.2|9=62|35=0|34=187|49=ALGO-EXCHANGE|52=20171128-07:34:33.718|56=HSBC|10=254|
8=FIX.4.2|9=62|35=0|34=188|49=HSBC|52=20171128-07:34:38.403|56=ALGO-EXCHANGE|10=251|
8=FIX.4.2|9=62|35=0|34=188|49=ALGO-EXCHANGE|52=20171128-07:34:38.719|56=HSBC|10=005|
8=FIX.4.2|9=62|35=0|34=189|49=HSBC|52=20171128-07:34:43.403|56=ALGO-EXCHANGE|10=248|
8=FIX.4.2|9=62|35=0|34=189|49=ALGO-EXCHANGE|52=20171128-07:34:44.718|56=HSBC|10=002|
8=FIX.4.2|9=62|35=0|34=190|49=HSBC|52=20171128-07:34:48.403|56=ALGO-EXCHANGE|10=245|
8=FIX.4.2|9=62|35=0|34=190|49=ALGO-EXCHANGE|52=20171128-07:34:49.718|56=HSBC|10=255|
8=FIX.4.2|9=62|35=0|34=191|49=HSBC|52=20171128-07:34:54.403|56=ALGO-EXCHANGE|10=243|
8=FIX.4.2|9=62|35=0|34=191|49=ALGO-EXCHANGE|52=20171128-07:34:54.719|56=HSBC|10=253|
8=FIX.4.2|9=62|35=0|34=192|49=HSBC|52=20171128-07:34:59.403|56=ALGO-EXCHANGE|10=249|
8=FIX.4.2|9=62|35=0|34=192|49=ALGO-EXCHANGE|52=20171128-07:35:00.719|56=HSBC|10=246|
8=FIX.4.2|9=62|35=0|34=193|49=HSBC|52=20171128-07:35:05.403|56=ALGO-EXCHANGE|10=242|
8=FIX.4.2|9=62|35=0|34=193|49=ALGO-EXCHANGE|52=20171128-07:35:05.719|56=HSBC|10=252|
8=FIX.4.2|9=62|35=0|34=194|49=HSBC|52=20171128-07:35:10.403|56=ALGO-EXCHANGE|10=239|
8=FIX.4.2|9=62|35=0|34=194|49=ALGO-EXCHANGE|52=20171128-07:35:11.718|56=HSBC|10=249|
8=FIX.4.2|9=62|35=0|34=195|49=HSBC|52=20171128-07:35:15.403|56=ALGO-EXCHANGE|10=245|
8=FIX.4.2|9=62|35=0|34=195|49=ALGO-EXCHANGE|52=20171128-07:35:16.719|56=HSBC|10=000|
8=FIX.4.2|9=62|35=0|34=196|49=HSBC|52=20171128-07:35:20.403|56=ALGO-EXCHANGE|10=242|
8=FIX.4.2|9=62|35=0|34=196|49=ALGO-EXCHANGE|52=20171128-07:35:22.718|56=HSBC|10=253|
8=FIX.4.2|9=62|35=0|34=197|49=HSBC|52=20171128-07:35:25.404|56=ALGO-EXCHANGE|10=249|
8=FIX.4.2|9=62|35=0|34=197|49=ALGO-EXCHANGE|52=20171128-07:35:27.718|56=HSBC|10=003|
8=FIX.4.2|9=62|35=0|34=198|49=HSBC|52=20171128-07:35:31.403|56=ALGO-EXCHANGE|10=246|
8=FIX.4.2|9=62|35=0|34=198|49=ALGO-EXCHANGE|52=20171128-07:35:32.719|56=HSBC|10=001|
8=FIX.4.2|9=62|35=0|34=199|49=HSBC|52=20171128-07:35:36.403|56=ALGO-EXCHANGE|10=252|
8=FIX.4.2|9=62|35=0|34=199|49=ALGO-EXCHANGE|52=20171128-07:35:38.719|56=HSBC|10=008|
8=FIX.4.2|9=62|35=0|34=200|49=HSBC|52=20171128-07:35:41.403|56=ALGO-EXCHANGE|10=231|
8=FIX.4.2|9=62|35=0|34=200|49=ALGO-EXCHANGE|52=20171128-07:35:43.719|56=HSBC|10=243|
8=FIX.4.2|9=62|35=0|34=201|49=HSBC|52=20171128-07:35:46.404|56=ALGO-EXCHANGE|10=238|
8=FIX.4.2|9=62|35=0|34=201|49=ALGO-EXCHANGE|52=20171128-07:35:48.719|56=HSBC|10=249|
8=FIX.4.2|9=62|35=0|34=202|49=HSBC|52=20171128-07:35:52.402|56=ALGO-EXCHANGE|10=234|
8=FIX.4.2|9=62|35=0|34=202|49=ALGO-EXCHANGE|52=20171128-07:35:53.719|56=HSBC|10=246|
8=FIX.4.2|9=62|35=0|34=203|49=HSBC|52=20171128-07:35:57.404|56=ALGO-EXCHANGE|10=242|
8=FIX.4.2|9=62|35=0|34=203|49=ALGO-EXCHANGE|52=20171128-07:35:59.718|56=HSBC|10=252|
8=FIX.4.2|9=62|35=0|34=204|49=HSBC|52=20171128-07:36:03.404|56=ALGO-EXCHANGE|10=235|
8=FIX.4.2|9=62|35=0|34=204|49=ALGO-EXCHANGE|52=20171128-07:36:04.719|56=HSBC|10=245|
8=FIX.4.2|9=62|35=0|34=205|49=HSBC|52=20171128-07:36:09.403|56=ALGO-EXCHANGE|10=241|
8=FIX.4.2|9=62|35=0|34=205|49=ALGO-EXCHANGE|52=20171128-07:36:09.719|56=HSBC|10=251|
8=FIX.4.2|9=62|35=0|34=206|49=HSBC|52=20171128-07:36:14.403|56=ALGO-EXCHANGE|10=238|
8=FIX.4.2|9=62|35=0|34=206|49=ALGO-EXCHANGE|52=20171128-07:36:14.719|56=HSBC|10=248|
8=FIX.4.2|9=62|35=0|34=207|49=HSBC|52=20171128-07:36:19.403|56=ALGO-EXCHANGE|10=244|
8=FIX.4.2|9=62|35=0|34=207|49=ALGO-EXCHANGE|52=20171128-07:36:19.719|56=HSBC|10=254|
8=FIX.4.2|9=62|35=0|34=208|49=HSBC|52=20171128-07:36:24.403|56=ALGO-EXCHANGE|10=241|
8=FIX.4.2|9=62|35=0|34=208|49=ALGO-EXCHANGE|52=20171128-07:36:25.719|56=HSBC|10=252|
8=FIX.4.2|9=62|35=0|34=209|49=HSBC|52=20171128-07:36:29.404|56=ALGO-EXCHANGE|10=248|
8=FIX.4.2|9=62|35=0|34=209|49=ALGO-EXCHANGE|52=20171128-07:36:30.719|56=HSBC|10=249|
8=FIX.4.2|9=62|35=0|34=210|49=HSBC|52=20171128-07:36:34.404|56=ALGO-EXCHANGE|10=236|
8=FIX.4.2|9=62|35=0|34=210|49=ALGO-EXCHANGE|52=20171128-07:36:35.720|56=HSBC|10=238|
8=FIX.4.2|9=62|35=0|34=211|49=HSBC|52=20171128-07:36:40.403|56=ALGO-EXCHANGE|10=233|
8=FIX.4.2|9=62|35=0|34=211|49=ALGO-EXCHANGE|52=20171128-07:36:41.719|56=HSBC|10=244|
8=FIX.4.2|9=62|35=0|34=212|49=HSBC|52=20171128-07:36:45.403|56=ALGO-EXCHANGE|10=239|
8=FIX.4.2|9=62|35=0|34=212|49=ALGO-EXCHANGE|52=20171128-07:36:46.720|56=HSBC|10=242|
8=FIX.4.2|9=62|35=0|34=213|49=HSBC|52=20171128-07:36:50.403|56=ALGO-EXCHANGE|10=236|
8=FIX.4.2|9=62|35=0|34=213|49=ALGO-EXCHANGE|52=20171128-07:36:52.719|56=HSBC|10=248|
8=FIX.4.2|9=62|35=0|34=214|49=HSBC|52=20171128-07:36:55.404|56=ALGO-EXCHANGE|10=243|
8=FIX.4.2|9=62|35=0|34=214|49=ALGO-EXCHANGE|52=20171128-07:36:57.719|56=HSBC|10=254|
8=FIX.4.2|9=62|35=0|34=215|49=HSBC|52=20171128-07:37:00.404|56=ALGO-EXCHANGE|10=235|
8=FIX.4.2|9=62|35=0|34=215|49=ALGO-EXCHANGE|52=20171128-07:37:02.719|56=HSBC|10=246|
8=FIX.4.2|9=62|35=0|34=216|49=HSBC|52=20171128-07:37:05.404|56=ALGO-EXCHANGE|10=241|
8=FIX.4.2|9=62|35=0|34=216|49=ALGO-EXCHANGE|52=20171128-07:37:07.719|56=HSBC|10=252|
8=FIX.4.2|9=62|35=0|34=217|49=HSBC|52=20171128-07:37:11.403|56=ALGO-EXCHANGE|10=238|
8=FIX.4.2|9=62|35=0|34=217|49=ALGO-EXCHANGE|52=20171128-07:37:12.719|56=HSBC|10=249|
8=FIX.4.2|9=62|35=0|34=218|49=HSBC|52=20171128-07:37:16.404|56=ALGO-EXCHANGE|10=245|
8=FIX.4.2|9=62|35=0|34=218|49=ALGO-EXCHANGE|52=20171128-07:37:17.720|56=HSBC|10=247|
8=FIX.4.2|9=62|35=0|34=219|49=HSBC|52=20171128-07:37:21.404|56=ALGO-EXCHANGE|10=242|
8=FIX.4.2|9=62|35=0|34=219|49=ALGO-EXCHANGE|52=20171128-07:37:22.720|56=HSBC|10=244|
8=FIX.4.2|9=62|35=0|34=220|49=HSBC|52=20171128-07:37:26.404|56=ALGO-EXCHANGE|10=239|
8=FIX.4.2|9=62|35=0|34=220|49=ALGO-EXCHANGE|52=20171128-07:37:28.719|56=HSBC|10=250|
8=FIX.4.2|9=62|35=0|34=221|49=HSBC|52=20171128-07:37:31.404|56=ALGO-EXCHANGE|10=236|
8=FIX.4.2|9=62|35=0|34=221|49=ALGO-EXCHANGE|52=20171128-07:37:33.719|56=HSBC|10=247|
8=FIX.4.2|9=62|35=0|34=222|49=HSBC|52=20171128-07:37:36.404|56=ALGO-EXCHANGE|10=242|
8=FIX.4.2|9=62|35=0|34=222|49=ALGO-EXCHANGE|52=20171128-07:37:38.719|56=HSBC|10=253|
8=FIX.4.2|9=62|35=0|34=223|49=HSBC|52=20171128-07:37:41.404|56=ALGO-EXCHANGE|10=239|
8=FIX.4.2|9=62|35=0|34=223|49=ALGO-EXCHANGE|52=20171128-07:37:43.720|56=HSBC|10=242|
8=FIX.4.2|9=62|35=0|34=224|49=HSBC|52=20171128-07:37:47.403|56=ALGO-EXCHANGE|10=245|
8=FIX.4.2|9=62|35=0|34=224|49=ALGO-EXCHANGE|52=20171128-07:37:48.720|56=HSBC|10=248|
8=FIX.4.2|9=62|35=0|34=225|49=HSBC|52=20171128-07:37:52.404|56=ALGO-EXCHANGE|10=243|
8=FIX.4.2|9=62|35=0|34=225|49=ALGO-EXCHANGE|52=20171128-07:37:53.720|56=HSBC|10=245|
8=FIX.4.2|9=62|35=0|34=226|49=HSBC|52=20171128-07:37:57.404|56=ALGO-EXCHANGE|10=249|
8=FIX.4.2|9=62|35=0|34=226|49=ALGO-EXCHANGE|52=20171128-07:37:58.720|56=HSBC|10=251|
8=FIX.4.2|9=62|35=0|34=227|49=HSBC|52=20171128-07:38:02.404|56=ALGO-EXCHANGE|10=241|
8=FIX.4.2|9=62|35=0|34=227|49=ALGO-EXCHANGE|52=20171128-07:38:03.720|56=HSBC|10=243|
8=FIX.4.2|9=62|35=0|34=228|49=HSBC|52=20171128-07:38:08.404|56=ALGO-EXCHANGE|10=248|
8=FIX.4.2|9=62|35=0|34=228|49=ALGO-EXCHANGE|52=20171128-07:38:08.720|56=HSBC|10=249|
8=FIX.4.2|9=62|35=0|34=229|49=HSBC|52=20171128-07:38:13.405|56=ALGO-EXCHANGE|10=246|
8=FIX.4.2|9=62|35=0|34=229|49=ALGO-EXCHANGE|52=20171128-07:38:14.719|56=HSBC|10=255|
8=FIX.4.2|9=62|35=0|34=230|49=HSBC|52=20171128-07:38:19.404|56=ALGO-EXCHANGE|10=243|
8=FIX.4.2|9=62|35=0|34=230|49=ALGO-EXCHANGE|52=20171128-07:38:19.719|56=HSBC|10=252|
8=FIX.4.2|9=62|35=0|34=231|49=HSBC|52=20171128-07:38:24.404|56=ALGO-EXCHANGE|10=240|
8=FIX.4.2|9=62|35=0|34=231|49=ALGO-EXCHANGE|52=20171128-07:38:24.720|56=HSBC|10=241|
8=FIX.4.2|9=62|35=0|34=232|49=HSBC|52=20171128-07:38:29.404|56=ALGO-EXCHANGE|10=246|
8=FIX.4.2|9=62|35=0|34=232|49=ALGO-EXCHANGE|52=20171128-07:38:29.720|56=HSBC|10=247|
8=FIX.4.2|9=62|35=0|34=233|49=HSBC|52=20171128-07:38:34.404|56=ALGO-EXCHANGE|10=243|
8=FIX.4.2|9=62|35=0|34=233|49=ALGO-EXCHANGE|52=20171128-07:38:34.720|56=HSBC|10=244|
8=FIX.4.2|9=62|35=0|34=234|49=HSBC|52=20171128-07:38:39.404|56=ALGO-EXCHANGE|10=249|
8=FIX.4.2|9=62|35=0|34=234|49=ALGO-EXCHANGE|52=20171128-07:38:39.720|56=HSBC|10=250|
8=FIX.4.2|9=62|35=0|34=235|49=HSBC|52=20171128-07:38:44.404|56=ALGO-EXCHANGE|10=246|
8=FIX.4.2|9=62|35=0|34=235|49=ALGO-EXCHANGE|52=20171128-07:38:44.720|56=HSBC|10=247|
8=FIX.4.2|9=62|35=0|34=236|49=HSBC|52=20171128-07:38:49.404|56=ALGO-EXCHANGE|10=252|
8=FIX.4.2|9=62|35=0|34=236|49=ALGO-EXCHANGE|52=20171128-07:38:49.720|56=HSBC|10=253|
8=FIX.4.2|9=62|35=0|34=237|49=HSBC|52=20171128-07:38:54.404|56=ALGO-EXCHANGE|10=249|
8=FIX.4.2|9=62|35=0|34=237|49=ALGO-EXCHANGE|52=20171128-07:38:54.720|56=HSBC|10=250|
8=FIX.4.2|9=62|35=0|34=238|49=HSBC|52=20171128-07:38:59.404|56=ALGO-EXCHANGE|10=255|
8=FIX.4.2|9=62|35=0|34=238|49=ALGO-EXCHANGE|52=20171128-07:38:59.720|56=HSBC|10=000|
8=FIX.4.2|9=62|35=0|34=239|49=HSBC|52=20171128-07:39:04.405|56=ALGO-EXCHANGE|10=248|
8=FIX.4.2|9=62|35=0|34=239|49=ALGO-EXCHANGE|52=20171128-07:39:04.720|56=HSBC|10=248|
8=FIX.4.2|9=62|35=0|34=240|49=ALGO-EXCHANGE|52=20171128-07:39:09.720|56=HSBC|10=245|
8=FIX.4.2|9=62|35=0|34=240|49=HSBC|52=20171128-07:39:09.721|56=ALGO-EXCHANGE|10=246|
8=FIX.4.2|9=62|35=0|34=241|49=ALGO-EXCHANGE|52=20171128-07:39:14.720|56=HSBC|10=242|
8=FIX.4.2|9=62|35=0|34=241|49=HSBC|52=20171128-07:39:14.721|56=ALGO-EXCHANGE|10=243|
8=FIX.4.2|9=62|35=0|34=242|49=ALGO-EXCHANGE|52=20171128-07:39:19.720|56=HSBC|10=248|
8=FIX.4.2|9=62|35=0|34=242|49=HSBC|52=20171128-07:39:19.722|56=ALGO-EXCHANGE|10=250|
8=FIX.4.2|9=62|35=0|34=243|49=ALGO-EXCHANGE|52=20171128-07:39:24.721|56=HSBC|10=246|
8=FIX.4.2|9=62|35=0|34=243|49=HSBC|52=20171128-07:39:24.722|56=ALGO-EXCHANGE|10=247|
8=FIX.4.2|9=62|35=0|34=244|49=ALGO-EXCHANGE|52=20171128-07:39:29.721|56=HSBC|10=252|
8=FIX.4.2|9=62|35=0|34=244|49=HSBC|52=20171128-07:39:29.723|56=ALGO-EXCHANGE|10=254|
8=FIX.4.2|9=62|35=0|34=245|49=HSBC|52=20171128-07:39:35.404|56=ALGO-EXCHANGE|10=248|
8=FIX.4.2|9=62|35=0|34=245|49=ALGO-EXCHANGE|52=20171128-07:39:35.406|56=HSBC|10=250|
8=FIX.4.2|9=62|35=0|34=246|49=HSBC|52=20171128-07:39:40.404|56=ALGO-EXCHANGE|10=245|
8=FIX.4.2|9=62|35=0|34=246|49=ALGO-EXCHANGE|52=20171128-07:39:40.407|56=HSBC|10=248|
8=FIX.4.2|9=62|35=0|34=247|49=HSBC|52=20171128-07:39:45.405|56=ALGO-EXCHANGE|10=252|
8=FIX.4.2|9=62|35=0|34=247|49=ALGO-EXCHANGE|52=20171128-07:39:45.407|56=HSBC|10=254|
8=FIX.4.2|9=62|35=0|34=248|49=HSBC|52=20171128-07:39:50.405|56=ALGO-EXCHANGE|10=249|
8=FIX.4.2|9=62|35=0|34=248|49=ALGO-EXCHANGE|52=20171128-07:39:50.720|56=HSBC|10=249|
8=FIX.4.2|9=77|35=A|34=1|49=HSBC|52=20171128-07:48:15.431|56=ALGO-EXCHANGE|98=0|108=5|141=Y|10=187|
8=FIX.4.2|9=77|35=A|34=1|49=ALGO-EXCHANGE|52=20171128-07:48:15.497|56=HSBC|98=0|108=5|141=Y|10=199|
8=FIX.4.2|9=60|35=0|34=2|49=ALGO-EXCHANGE|52=20171128-07:48:21.222|56=HSBC|10=134|
8=FIX.4.2|9=60|35=0|34=2|49=HSBC|52=20171128-07:48:21.225|56=ALGO-EXCHANGE|10=137|
8=FIX.4.2|9=60|35=0|34=3|49=HSBC|52=20171128-07:48:26.408|56=ALGO-EXCHANGE|10=146|
8=FIX.4.2|9=60|35=0|34=3|49=ALGO-EXCHANGE|52=20171128-07:48:26.410|56=HSBC|10=139|
8=FIX.4.2|9=60|35=0|34=4|49=HSBC|52=20171128-07:48:31.408|56=ALGO-EXCHANGE|10=143|
8=FIX.4.2|9=60|35=0|34=4|49=ALGO-EXCHANGE|52=20171128-07:48:31.411|56=HSBC|10=137|
8=FIX.4.2|9=60|35=0|34=5|49=HSBC|52=20171128-07:48:36.408|56=ALGO-EXCHANGE|10=149|
8=FIX.4.2|9=60|35=0|34=5|49=ALGO-EXCHANGE|52=20171128-07:48:37.220|56=HSBC|10=142|
8=FIX.4.2|9=60|35=0|34=6|49=HSBC|52=20171128-07:48:41.408|56=ALGO-EXCHANGE|10=146|
8=FIX.4.2|9=60|35=0|34=6|49=ALGO-EXCHANGE|52=20171128-07:48:42.221|56=HSBC|10=140|
8=FIX.4.2|9=60|35=0|34=7|49=HSBC|52=20171128-07:48:46.408|56=ALGO-EXCHANGE|10=152|
8=FIX.4.2|9=60|35=0|34=7|49=ALGO-EXCHANGE|52=20171128-07:48:47.221|56=HSBC|10=146|
8=FIX.4.2|9=60|35=0|34=8|49=HSBC|52=20171128-07:48:51.408|56=ALGO-EXCHANGE|10=149|
8=FIX.4.2|9=60|35=0|34=8|49=ALGO-EXCHANGE|52=20171128-07:48:52.221|56=HSBC|10=143|
8=FIX.4.2|9=60|35=0|34=9|49=HSBC|52=20171128-07:48:56.408|56=ALGO-EXCHANGE|10=155|
8=FIX.4.2|9=60|35=0|34=9|49=ALGO-EXCHANGE|52=20171128-07:48:58.221|56=HSBC|10=150|
8=FIX.4.2|9=61|35=0|34=10|49=HSBC|52=20171128-07:49:01.408|56=ALGO-EXCHANGE|10=187|
8=FIX.4.2|9=61|35=0|34=10|49=ALGO-EXCHANGE|52=20171128-07:49:03.221|56=HSBC|10=182|
8=FIX.4.2|9=61|35=0|34=11|49=HSBC|52=20171128-07:49:06.409|56=ALGO-EXCHANGE|10=194|
8=FIX.4.2|9=61|35=0|34=11|49=ALGO-EXCHANGE|52=20171128-07:49:08.221|56=HSBC|10=188|
8=FIX.4.2|9=61|35=0|34=12|49=HSBC|52=20171128-07:49:11.409|56=ALGO-EXCHANGE|10=191|
8=FIX.4.2|9=61|35=0|34=12|49=ALGO-EXCHANGE|52=20171128-07:49:13.222|56=HSBC|10=186|
8=FIX.4.2|9=61|35=0|34=13|49=HSBC|52=20171128-07:49:16.409|56=ALGO-EXCHANGE|10=197|
8=FIX.4.2|9=61|35=0|34=13|49=ALGO-EXCHANGE|52=20171128-07:49:19.221|56=HSBC|10=192|
8=FIX.4.2|9=61|35=0|34=14|49=HSBC|52=20171128-07:49:22.409|56=ALGO-EXCHANGE|10=195|
8=FIX.4.2|9=61|35=0|34=14|49=ALGO-EXCHANGE|52=20171128-07:49:24.221|56=HSBC|10=189|
8=FIX.4.2|9=61|35=0|34=15|49=HSBC|52=20171128-07:49:28.408|56=ALGO-EXCHANGE|10=201|
8=FIX.4.2|9=61|35=0|34=15|49=ALGO-EXCHANGE|52=20171128-07:49:29.221|56=HSBC|10=195|
8=FIX.4.2|9=61|35=0|34=16|49=HSBC|52=20171128-07:49:33.408|56=ALGO-EXCHANGE|10=198|
8=FIX.4.2|9=61|35=0|34=16|49=ALGO-EXCHANGE|52=20171128-07:49:34.221|56=HSBC|10=192|
8=FIX.4.2|9=61|35=0|34=17|49=HSBC|52=20171128-07:49:38.409|56=ALGO-EXCHANGE|10=205|
8=FIX.4.2|9=61|35=0|34=17|49=ALGO-EXCHANGE|52=20171128-07:49:39.221|56=HSBC|10=198|
8=FIX.4.2|9=61|35=0|34=18|49=ALGO-EXCHANGE|52=20171128-07:49:44.221|56=HSBC|10=195|
8=FIX.4.2|9=61|35=0|34=18|49=HSBC|52=20171128-07:49:44.223|56=ALGO-EXCHANGE|10=197|
8=FIX.4.2|9=61|35=0|34=19|49=ALGO-EXCHANGE|52=20171128-07:49:49.221|56=HSBC|10=201|
8=FIX.4.2|9=61|35=0|34=19|49=HSBC|52=20171128-07:49:49.408|56=ALGO-EXCHANGE|10=208|
8=FIX.4.2|9=61|35=0|34=20|49=ALGO-EXCHANGE|52=20171128-07:49:54.221|56=HSBC|10=189|
8=FIX.4.2|9=61|35=0|34=20|49=HSBC|52=20171128-07:49:54.409|56=ALGO-EXCHANGE|10=197|
8=FIX.4.2|9=61|35=0|34=21|49=ALGO-EXCHANGE|52=20171128-07:49:59.221|56=HSBC|10=195|
8=FIX.4.2|9=61|35=0|34=21|49=HSBC|52=20171128-07:49:59.409|56=ALGO-EXCHANGE|10=203|
8=FIX.4.2|9=61|35=0|34=22|49=ALGO-EXCHANGE|52=20171128-07:50:04.221|56=HSBC|10=178|
8=FIX.4.2|9=61|35=0|34=22|49=HSBC|52=20171128-07:50:04.409|56=ALGO-EXCHANGE|10=186|
8=FIX.4.2|9=61|35=0|34=23|49=ALGO-EXCHANGE|52=20171128-07:50:09.221|56=HSBC|10=184|
8=FIX.4.2|9=61|35=0|34=23|49=HSBC|52=20171128-07:50:09.409|56=ALGO-EXCHANGE|10=192|
8=FIX.4.2|9=61|35=0|34=24|49=ALGO-EXCHANGE|52=20171128-07:50:14.221|56=HSBC|10=181|
8=FIX.4.2|9=61|35=0|34=24|49=HSBC|52=20171128-07:50:14.411|56=ALGO-EXCHANGE|10=182|
8=FIX.4.2|9=61|35=0|34=25|49=ALGO-EXCHANGE|52=20171128-07:50:19.222|56=HSBC|10=188|
8=FIX.4.2|9=61|35=0|34=25|49=HSBC|52=20171128-07:50:20.408|56=ALGO-EXCHANGE|10=186|
8=FIX.4.2|9=61|35=0|34=26|49=ALGO-EXCHANGE|52=20171128-07:50:25.221|56=HSBC|10=185|
8=FIX.4.2|9=61|35=0|34=26|49=HSBC|52=20171128-07:50:25.409|56=ALGO-EXCHANGE|10=193|
8=FIX.4.2|9=61|35=0|34=27|49=ALGO-EXCHANGE|52=20171128-07:50:30.222|56=HSBC|10=183|
8=FIX.4.2|9=61|35=0|34=27|49=HSBC|52=20171128-07:50:31.409|56=ALGO-EXCHANGE|10=191|
8=FIX.4.2|9=61|35=0|34=28|49=ALGO-EXCHANGE|52=20171128-07:50:36.221|56=HSBC|10=189|
8=FIX.4.2|9=61|35=0|34=28|49=HSBC|52=20171128-07:50:36.409|56=ALGO-EXCHANGE|10=197|
8=FIX.4.2|9=61|35=0|34=29|49=ALGO-EXCHANGE|52=20171128-07:50:41.222|56=HSBC|10=187|
8=FIX.4.2|9=61|35=0|34=29|49=HSBC|52=20171128-07:50:42.409|56=ALGO-EXCHANGE|10=195|
8=FIX.4.2|9=61|35=0|34=30|49=ALGO-EXCHANGE|52=20171128-07:50:47.222|56=HSBC|10=185|
8=FIX.4.2|9=61|35=0|34=30|49=HSBC|52=20171128-07:50:48.409|56=ALGO-EXCHANGE|10=193|
8=FIX.4.2|9=61|35=0|34=31|49=ALGO-EXCHANGE|52=20171128-07:50:52.222|56=HSBC|10=182|
8=FIX.4.2|9=61|35=0|34=31|49=HSBC|52=20171128-07:50:53.409|56=ALGO-EXCHANGE|10=190|
8=FIX.4.2|9=61|35=0|34=32|49=ALGO-EXCHANGE|52=20171128-07:50:57.222|56=HSBC|10=188|
8=FIX.4.2|9=61|35=0|34=32|49=HSBC|52=20171128-07:50:59.409|56=ALGO-EXCHANGE|10=197|
8=FIX.4.2|9=61|35=0|34=33|49=ALGO-EXCHANGE|52=20171128-07:51:02.222|56=HSBC|10=180|
8=FIX.4.2|9=61|35=0|34=33|49=HSBC|52=20171128-07:51:04.410|56=ALGO-EXCHANGE|10=181|
8=FIX.4.2|9=61|35=0|34=34|49=ALGO-EXCHANGE|52=20171128-07:51:07.222|56=HSBC|10=186|
8=FIX.4.2|9=61|35=0|34=34|49=HSBC|52=20171128-07:51:10.410|56=ALGO-EXCHANGE|10=179|
8=FIX.4.2|9=61|35=0|34=35|49=ALGO-EXCHANGE|52=20171128-07:51:12.222|56=HSBC|10=183|
8=FIX.4.2|9=61|35=0|34=35|49=HSBC|52=20171128-07:51:16.409|56=ALGO-EXCHANGE|10=194|
8=FIX.4.2|9=61|35=0|34=36|49=ALGO-EXCHANGE|52=20171128-07:51:17.222|56=HSBC|10=189|
8=FIX.4.2|9=61|35=0|34=36|49=HSBC|52=20171128-07:51:21.409|56=ALGO-EXCHANGE|10=191|
8=FIX.4.2|9=61|35=0|34=37|49=ALGO-EXCHANGE|52=20171128-07:51:22.222|56=HSBC|10=186|
8=FIX.4.2|9=61|35=0|34=37|49=HSBC|52=20171128-07:51:26.409|56=ALGO-EXCHANGE|10=197|
8=FIX.4.2|9=61|35=0|34=38|49=ALGO-EXCHANGE|52=20171128-07:51:27.222|56=HSBC|10=192|
8=FIX.4.2|9=61|35=0|34=38|49=HSBC|52=20171128-07:51:31.409|56=ALGO-EXCHANGE|10=194|
8=FIX.4.2|9=61|35=0|34=39|49=ALGO-EXCHANGE|52=20171128-07:51:32.222|56=HSBC|10=189|
8=FIX.4.2|9=61|35=0|34=40|49=ALGO-EXCHANGE|52=20171128-07:51:37.222|56=HSBC|10=186|
8=FIX.4.2|9=61|35=0|34=39|49=HSBC|52=20171128-07:51:37.225|56=ALGO-EXCHANGE|10=197|
8=FIX.4.2|9=61|35=0|34=41|49=ALGO-EXCHANGE|52=20171128-07:51:42.222|56=HSBC|10=183|
8=FIX.4.2|9=61|35=0|34=40|49=HSBC|52=20171128-07:51:42.409|56=ALGO-EXCHANGE|10=189|
8=FIX.4.2|9=61|35=0|34=42|49=ALGO-EXCHANGE|52=20171128-07:51:47.222|56=HSBC|10=189|
8=FIX.4.2|9=61|35=0|34=41|49=HSBC|52=20171128-07:51:47.410|56=ALGO-EXCHANGE|10=187|
8=FIX.4.2|9=61|35=0|34=43|49=ALGO-EXCHANGE|52=20171128-07:51:52.222|56=HSBC|10=186|
8=FIX.4.2|9=61|35=0|34=42|49=HSBC|52=20171128-07:51:53.409|56=ALGO-EXCHANGE|10=193|
8=FIX.4.2|9=61|35=0|34=44|49=ALGO-EXCHANGE|52=20171128-07:51:57.222|56=HSBC|10=192|
8=FIX.4.2|9=61|35=0|34=43|49=HSBC|52=20171128-07:51:58.410|56=ALGO-EXCHANGE|10=191|
8=FIX.4.2|9=61|35=0|34=45|49=ALGO-EXCHANGE|52=20171128-07:52:02.223|56=HSBC|10=185|
8=FIX.4.2|9=61|35=0|34=44|49=HSBC|52=20171128-07:52:04.410|56=ALGO-EXCHANGE|10=184|
8=FIX.4.2|9=61|35=0|34=46|49=ALGO-EXCHANGE|52=20171128-07:52:07.223|56=HSBC|10=191|
8=FIX.4.2|9=61|35=0|34=45|49=HSBC|52=20171128-07:52:09.410|56=ALGO-EXCHANGE|10=190|
8=FIX.4.2|9=61|35=0|34=47|49=ALGO-EXCHANGE|52=20171128-07:52:13.223|56=HSBC|10=189|
8=FIX.4.2|9=61|35=0|34=46|49=HSBC|52=20171128-07:52:15.409|56=ALGO-EXCHANGE|10=196|
8=FIX.4.2|9=61|35=0|34=48|49=ALGO-EXCHANGE|52=20171128-07:52:19.223|56=HSBC|10=196|
8=FIX.4.2|9=61|35=0|34=47|49=HSBC|52=20171128-07:52:20.409|56=ALGO-EXCHANGE|10=193|
8=FIX.4.2|9=61|35=0|34=49|49=ALGO-EXCHANGE|52=20171128-07:52:25.222|56=HSBC|10=193|
8=FIX.4.2|9=61|35=0|34=48|49=HSBC|52=20171128-07:52:25.410|56=ALGO-EXCHANGE|10=191|
8=FIX.4.2|9=61|35=0|34=50|49=ALGO-EXCHANGE|52=20171128-07:52:30.222|56=HSBC|10=181|
8=FIX.4.2|9=61|35=0|34=49|49=HSBC|52=20171128-07:52:31.409|56=ALGO-EXCHANGE|10=197|
8=FIX.4.2|9=61|35=0|34=51|49=ALGO-EXCHANGE|52=20171128-07:52:35.223|56=HSBC|10=188|
8=FIX.4.2|9=61|35=0|34=50|49=HSBC|52=20171128-07:52:36.410|56=ALGO-EXCHANGE|10=186|
8=FIX.4.2|9=61|35=0|34=52|49=ALGO-EXCHANGE|52=20171128-07:52:40.223|56=HSBC|10=185|
8=FIX.4.2|9=61|35=0|34=51|49=HSBC|52=20171128-07:52:41.410|56=ALGO-EXCHANGE|10=183|
8=FIX.4.2|9=61|35=0|34=53|49=ALGO-EXCHANGE|52=20171128-07:52:46.223|56=HSBC|10=192|
8=FIX.4.2|9=61|35=0|34=52|49=HSBC|52=20171128-07:52:46.410|56=ALGO-EXCHANGE|10=189|
8=FIX.4.2|9=61|35=0|34=53|49=HSBC|52=20171128-07:52:51.410|56=ALGO-EXCHANGE|10=186|
8=FIX.4.2|9=61|35=0|34=54|49=ALGO-EXCHANGE|52=20171128-07:52:51.411|56=HSBC|10=188|
8=FIX.4.2|9=61|35=0|34=54|49=HSBC|52=20171128-07:52:56.410|56=ALGO-EXCHANGE|10=192|
8=FIX.4.2|9=61|35=0|34=55|49=ALGO-EXCHANGE|52=20171128-07:52:56.411|56=HSBC|10=194|
8=FIX.4.2|9=61|35=0|34=55|49=HSBC|52=20171128-07:53:01.410|56=ALGO-EXCHANGE|10=184|
8=FIX.4.2|9=61|35=0|34=56|49=ALGO-EXCHANGE|52=20171128-07:53:01.411|56=HSBC|10=186|
8=FIX.4.2|9=61|35=0|34=56|49=HSBC|52=20171128-07:53:06.410|56=ALGO-EXCHANGE|10=190|
8=FIX.4.2|9=61|35=0|34=57|49=ALGO-EXCHANGE|52=20171128-07:53:06.412|56=HSBC|10=193|
8=FIX.4.2|9=61|35=0|34=57|49=HSBC|52=20171128-07:53:11.410|56=ALGO-EXCHANGE|10=187|
8=FIX.4.2|9=61|35=0|34=58|49=ALGO-EXCHANGE|52=20171128-07:53:11.412|56=HSBC|10=190|
8=FIX.4.2|9=61|35=0|34=58|49=HSBC|52=20171128-07:53:16.410|56=ALGO-EXCHANGE|10=193|
8=FIX.4.2|9=61|35=0|34=59|49=ALGO-EXCHANGE|52=20171128-07:53:16.412|56=HSBC|10=196|
8=FIX.4.2|9=61|35=0|34=59|49=HSBC|52=20171128-07:53:21.410|56=ALGO-EXCHANGE|10=190|
8=FIX.4.2|9=61|35=0|34=60|49=ALGO-EXCHANGE|52=20171128-07:53:21.412|56=HSBC|10=184|
8=FIX.4.2|9=61|35=0|34=60|49=HSBC|52=20171128-07:53:26.410|56=ALGO-EXCHANGE|10=187|
8=FIX.4.2|9=61|35=0|34=61|49=ALGO-EXCHANGE|52=20171128-07:53:26.413|56=HSBC|10=191|
8=FIX.4.2|9=61|35=0|34=62|49=ALGO-EXCHANGE|52=20171128-07:53:32.223|56=HSBC|10=188|
8=FIX.4.2|9=61|35=0|34=61|49=HSBC|52=20171128-07:53:32.225|56=ALGO-EXCHANGE|10=189|
8=FIX.4.2|9=61|35=0|34=63|49=ALGO-EXCHANGE|52=20171128-07:53:37.223|56=HSBC|10=194|
8=FIX.4.2|9=61|35=0|34=62|49=HSBC|52=20171128-07:53:37.410|56=ALGO-EXCHANGE|10=191|
8=FIX.4.2|9=61|35=0|34=64|49=ALGO-EXCHANGE|52=20171128-07:53:42.223|56=HSBC|10=191|
8=FIX.4.2|9=61|35=0|34=63|49=HSBC|52=20171128-07:53:42.411|56=ALGO-EXCHANGE|10=189|
8=FIX.4.2|9=61|35=0|34=65|49=ALGO-EXCHANGE|52=20171128-07:53:48.223|56=HSBC|10=198|
8=FIX.4.2|9=61|35=0|34=64|49=HSBC|52=20171128-07:53:48.226|56=ALGO-EXCHANGE|10=200|
8=FIX.4.2|9=61|35=0|34=66|49=ALGO-EXCHANGE|52=20171128-07:53:53.223|56=HSBC|10=195|
8=FIX.4.2|9=61|35=0|34=65|49=HSBC|52=20171128-07:53:53.410|56=ALGO-EXCHANGE|10=192|
8=FIX.4.2|9=61|35=0|34=67|49=ALGO-EXCHANGE|52=20171128-07:53:58.223|56=HSBC|10=201|
8=FIX.4.2|9=61|35=0|34=66|49=HSBC|52=20171128-07:53:58.410|56=ALGO-EXCHANGE|10=198|
8=FIX.4.2|9=61|35=0|34=68|49=ALGO-EXCHANGE|52=20171128-07:54:03.223|56=HSBC|10=193|
8=FIX.4.2|9=61|35=0|34=67|49=HSBC|52=20171128-07:54:03.410|56=ALGO-EXCHANGE|10=190|
8=FIX.4.2|9=61|35=0|34=69|49=ALGO-EXCHANGE|52=20171128-07:54:08.223|56=HSBC|10=199|
8=FIX.4.2|9=61|35=0|34=68|49=HSBC|52=20171128-07:54:08.410|56=ALGO-EXCHANGE|10=196|
8=FIX.4.2|9=61|35=0|34=70|49=ALGO-EXCHANGE|52=20171128-07:54:13.223|56=HSBC|10=187|
8=FIX.4.2|9=61|35=0|34=69|49=HSBC|52=20171128-07:54:13.410|56=ALGO-EXCHANGE|10=193|
8=FIX.4.2|9=61|35=0|34=71|49=ALGO-EXCHANGE|52=20171128-07:54:18.223|56=HSBC|10=193|
8=FIX.4.2|9=61|35=0|34=70|49=HSBC|52=20171128-07:54:18.411|56=ALGO-EXCHANGE|10=191|
8=FIX.4.2|9=61|35=0|34=72|49=ALGO-EXCHANGE|52=20171128-07:54:23.223|56=HSBC|10=190|
8=FIX.4.2|9=61|35=0|34=71|49=HSBC|52=20171128-07:54:24.411|56=ALGO-EXCHANGE|10=189|
8=FIX.4.2|9=61|35=0|34=73|49=ALGO-EXCHANGE|52=20171128-07:54:28.223|56=HSBC|10=196|
8=FIX.4.2|9=61|35=0|34=72|49=HSBC|52=20171128-07:54:30.411|56=ALGO-EXCHANGE|10=187|
8=FIX.4.2|9=61|35=0|34=74|49=ALGO-EXCHANGE|52=20171128-07:54:34.222|56=HSBC|10=193|
8=FIX.4.2|9=61|35=0|34=73|49=HSBC|52=20171128-07:54:36.410|56=ALGO-EXCHANGE|10=193|
8=FIX.4.2|9=61|35=0|34=75|49=ALGO-EXCHANGE|52=20171128-07:54:39.223|56=HSBC|10=200|
8=FIX.4.2|9=61|35=0|34=74|49=HSBC|52=20171128-07:54:41.410|56=ALGO-EXCHANGE|10=190|
8=FIX.4.2|9=61|35=0|34=76|49=ALGO-EXCHANGE|52=20171128-07:54:44.223|56=HSBC|10=197|
8=FIX.4.2|9=61|35=0|34=75|49=HSBC|52=20171128-07:54:46.410|56=ALGO-EXCHANGE|10=196|
8=FIX.4.2|9=61|35=0|34=77|49=ALGO-EXCHANGE|52=20171128-07:54:49.223|56=HSBC|10=203|
8=FIX.4.2|9=61|35=0|34=76|49=HSBC|52=20171128-07:54:51.410|56=ALGO-EXCHANGE|10=193|
8=FIX.4.2|9=61|35=0|34=78|49=ALGO-EXCHANGE|52=20171128-07:54:54.223|56=HSBC|10=200|
8=FIX.4.2|9=61|35=0|34=77|49=HSBC|52=20171128-07:54:56.410|56=ALGO-EXCHANGE|10=199|
8=FIX.4.2|9=61|35=0|34=79|49=ALGO-EXCHANGE|52=20171128-07:54:59.223|56=HSBC|10=206|
8=FIX.4.2|9=61|35=0|34=78|49=HSBC|52=20171128-07:55:01.410|56=ALGO-EXCHANGE|10=191|
8=FIX.4.2|9=61|35=0|34=80|49=ALGO-EXCHANGE|52=20171128-07:55:04.223|56=HSBC|10=189|
8=FIX.4.2|9=61|35=0|34=79|49=HSBC|52=20171128-07:55:06.410|56=ALGO-EXCHANGE|10=197|
8=FIX.4.2|9=61|35=0|34=81|49=ALGO-EXCHANGE|52=20171128-07:55:09.223|56=HSBC|10=195|
8=FIX.4.2|9=61|35=0|34=80|49=HSBC|52=20171128-07:55:11.410|56=ALGO-EXCHANGE|10=185|
8=FIX.4.2|9=61|35=0|34=82|49=ALGO-EXCHANGE|52=20171128-07:55:14.223|56=HSBC|10=192|
8=FIX.4.2|9=61|35=0|34=81|49=HSBC|52=20171128-07:55:17.410|56=ALGO-EXCHANGE|10=192|
8=FIX.4.2|9=61|35=0|34=83|49=ALGO-EXCHANGE|52=20171128-07:55:19.224|56=HSBC|10=199|
8=FIX.4.2|9=61|35=0|34=82|49=HSBC|52=20171128-07:55:22.410|56=ALGO-EXCHANGE|10=189|
8=FIX.4.2|9=61|35=0|34=84|49=ALGO-EXCHANGE|52=20171128-07:55:25.224|56=HSBC|10=197|
8=FIX.4.2|9=61|35=0|34=83|49=HSBC|52=20171128-07:55:27.411|56=ALGO-EXCHANGE|10=196|
8=FIX.4.2|9=61|35=0|34=85|49=ALGO-EXCHANGE|52=20171128-07:55:31.222|56=HSBC|10=193|
8=FIX.4.2|9=61|35=0|34=84|49=HSBC|52=20171128-07:55:33.411|56=ALGO-EXCHANGE|10=194|
8=FIX.4.2|9=61|35=0|34=86|49=ALGO-EXCHANGE|52=20171128-07:55:36.222|56=HSBC|10=199|
8=FIX.4.2|9=61|35=0|34=85|49=HSBC|52=20171128-07:55:39.410|56=ALGO-EXCHANGE|10=200|
8=FIX.4.2|9=61|35=0|34=87|49=ALGO-EXCHANGE|52=20171128-07:55:41.223|56=HSBC|10=197|
8=FIX.4.2|9=61|35=0|34=86|49=HSBC|52=20171128-07:55:44.410|56=ALGO-EXCHANGE|10=197|
8=FIX.4.2|9=61|35=0|34=88|49=ALGO-EXCHANGE|52=20171128-07:55:46.223|56=HSBC|10=203|
8=FIX.4.2|9=61|35=0|34=87|49=HSBC|52=20171128-07:55:49.411|56=ALGO-EXCHANGE|10=204|
8=FIX.4.2|9=61|35=0|34=89|49=ALGO-EXCHANGE|52=20171128-07:55:51.223|56=HSBC|10=200|
8=FIX.4.2|9=61|35=0|34=88|49=HSBC|52=20171128-07:55:55.410|56=ALGO-EXCHANGE|10=201|
8=FIX.4.2|9=61|35=0|34=90|49=ALGO-EXCHANGE|52=20171128-07:55:56.223|56=HSBC|10=197|
8=FIX.4.2|9=61|35=0|34=89|49=HSBC|52=20171128-07:56:00.411|56=ALGO-EXCHANGE|10=194|
8=FIX.4.2|9=61|35=0|34=91|49=ALGO-EXCHANGE|52=20171128-07:56:01.223|56=HSBC|10=189|
8=FIX.4.2|9=61|35=0|34=90|49=HSBC|52=20171128-07:56:05.411|56=ALGO-EXCHANGE|10=191|
8=FIX.4.2|9=61|35=0|34=92|49=ALGO-EXCHANGE|52=20171128-07:56:06.224|56=HSBC|10=196|
8=FIX.4.2|9=61|35=0|34=91|49=HSBC|52=20171128-07:56:10.412|56=ALGO-EXCHANGE|10=189|
8=FIX.4.2|9=61|35=0|34=93|49=ALGO-EXCHANGE|52=20171128-07:56:11.224|56=HSBC|10=193|
8=FIX.4.2|9=61|35=0|34=92|49=HSBC|52=20171128-07:56:15.412|56=ALGO-EXCHANGE|10=195|
8=FIX.4.2|9=61|35=0|34=94|49=ALGO-EXCHANGE|52=20171128-07:56:16.225|56=HSBC|10=200|
8=FIX.4.2|9=61|35=0|34=93|49=HSBC|52=20171128-07:56:20.413|56=ALGO-EXCHANGE|10=193|
8=FIX.4.2|9=61|35=0|34=95|49=ALGO-EXCHANGE|52=20171128-07:56:21.226|56=HSBC|10=198|
8=FIX.4.2|9=61|35=0|34=96|49=ALGO-EXCHANGE|52=20171128-07:56:26.226|56=HSBC|10=204|
8=FIX.4.2|9=61|35=0|34=94|49=HSBC|52=20171128-07:56:26.227|56=ALGO-EXCHANGE|10=203|
8=FIX.4.2|9=61|35=0|34=97|49=ALGO-EXCHANGE|52=20171128-07:56:31.227|56=HSBC|10=202|
8=FIX.4.2|9=61|35=0|34=95|49=HSBC|52=20171128-07:56:31.228|56=ALGO-EXCHANGE|10=201|
8=FIX.4.2|9=61|35=0|34=98|49=ALGO-EXCHANGE|52=20171128-07:56:36.227|56=HSBC|10=208|
8=FIX.4.2|9=61|35=0|34=96|49=HSBC|52=20171128-07:56:36.229|56=ALGO-EXCHANGE|10=208|
8=FIX.4.2|9=61|35=0|34=99|49=ALGO-EXCHANGE|52=20171128-07:56:41.228|56=HSBC|10=206|
8=FIX.4.2|9=61|35=0|34=97|49=HSBC|52=20171128-07:56:41.229|56=ALGO-EXCHANGE|10=205|
8=FIX.4.2|9=62|35=0|34=100|49=ALGO-EXCHANGE|52=20171128-07:56:46.228|56=HSBC|10=243|
8=FIX.4.2|9=61|35=0|34=98|49=HSBC|52=20171128-07:56:46.229|56=ALGO-EXCHANGE|10=211|
8=FIX.4.2|9=62|35=0|34=101|49=ALGO-EXCHANGE|52=20171128-07:56:51.228|56=HSBC|10=240|
8=FIX.4.2|9=61|35=0|34=99|49=HSBC|52=20171128-07:56:51.229|56=ALGO-EXCHANGE|10=208|
8=FIX.4.2|9=62|35=0|34=102|49=ALGO-EXCHANGE|52=20171128-07:56:56.229|56=HSBC|10=247|
8=FIX.4.2|9=62|35=0|34=100|49=HSBC|52=20171128-07:56:56.230|56=ALGO-EXCHANGE|10=237|
8=FIX.4.2|9=62|35=0|34=103|49=ALGO-EXCHANGE|52=20171128-07:57:01.230|56=HSBC|10=231|
8=FIX.4.2|9=62|35=0|34=101|49=HSBC|52=20171128-07:57:01.231|56=ALGO-EXCHANGE|10=230|
8=FIX.4.2|9=62|35=0|34=102|49=HSBC|52=20171128-07:57:06.417|56=ALGO-EXCHANGE|10=242|
8=FIX.4.2|9=62|35=0|34=104|49=ALGO-EXCHANGE|52=20171128-07:57:06.418|56=HSBC|10=245|
8=FIX.4.2|9=62|35=0|34=103|49=HSBC|52=20171128-07:57:11.417|56=ALGO-EXCHANGE|10=239|
8=FIX.4.2|9=62|35=0|34=105|49=ALGO-EXCHANGE|52=20171128-07:57:11.419|56=HSBC|10=243|
8=FIX.4.2|9=62|35=0|34=104|49=HSBC|52=20171128-07:57:16.418|56=ALGO-EXCHANGE|10=246|
8=FIX.4.2|9=62|35=0|34=106|49=ALGO-EXCHANGE|52=20171128-07:57:16.421|56=HSBC|10=242|
8=FIX.4.2|9=62|35=0|34=105|49=HSBC|52=20171128-07:57:21.418|56=ALGO-EXCHANGE|10=243|
8=FIX.4.2|9=62|35=0|34=107|49=ALGO-EXCHANGE|52=20171128-07:57:22.231|56=HSBC|10=239|
8=FIX.4.2|9=62|35=0|34=106|49=HSBC|52=20171128-07:57:26.420|56=ALGO-EXCHANGE|10=242|
8=FIX.4.2|9=62|35=0|34=108|49=ALGO-EXCHANGE|52=20171128-07:57:27.232|56=HSBC|10=246|
8=FIX.4.2|9=62|35=0|34=109|49=ALGO-EXCHANGE|52=20171128-07:57:32.233|56=HSBC|10=244|
8=FIX.4.2|9=62|35=0|34=107|49=HSBC|52=20171128-07:57:32.235|56=ALGO-EXCHANGE|10=244|
8=FIX.4.2|9=62|35=0|34=110|49=ALGO-EXCHANGE|52=20171128-07:57:37.233|56=HSBC|10=241|
8=FIX.4.2|9=62|35=0|34=108|49=HSBC|52=20171128-07:57:37.419|56=ALGO-EXCHANGE|10=254|
8=FIX.4.2|9=62|35=0|34=111|49=ALGO-EXCHANGE|52=20171128-07:57:42.233|56=HSBC|10=238|
8=FIX.4.2|9=62|35=0|34=109|49=HSBC|52=20171128-07:57:42.420|56=ALGO-EXCHANGE|10=243|
8=FIX.4.2|9=62|35=0|34=112|49=ALGO-EXCHANGE|52=20171128-07:57:47.234|56=HSBC|10=245|
8=FIX.4.2|9=62|35=0|34=110|49=HSBC|52=20171128-07:57:47.421|56=ALGO-EXCHANGE|10=241|
8=FIX.4.2|9=62|35=0|34=113|49=ALGO-EXCHANGE|52=20171128-07:57:52.234|56=HSBC|10=242|
8=FIX.4.2|9=62|35=0|34=111|49=HSBC|52=20171128-07:57:52.421|56=ALGO-EXCHANGE|10=238|
8=FIX.4.2|9=62|35=0|34=114|49=ALGO-EXCHANGE|52=20171128-07:57:57.234|56=HSBC|10=248|
8=FIX.4.2|9=62|35=0|34=112|49=HSBC|52=20171128-07:57:57.421|56=ALGO-EXCHANGE|10=244|
8=FIX.4.2|9=62|35=0|34=115|49=ALGO-EXCHANGE|52=20171128-07:58:02.234|56=HSBC|10=240|
8=FIX.4.2|9=62|35=0|34=113|49=HSBC|52=20171128-07:58:02.421|56=ALGO-EXCHANGE|10=236|
8=FIX.4.2|9=62|35=0|34=116|49=ALGO-EXCHANGE|52=20171128-07:58:07.235|56=HSBC|10=247|
8=FIX.4.2|9=62|35=0|34=114|49=HSBC|52=20171128-07:58:07.422|56=ALGO-EXCHANGE|10=243|
8=FIX.4.2|9=62|35=0|34=117|49=ALGO-EXCHANGE|52=20171128-07:58:12.235|56=HSBC|10=244|
8=FIX.4.2|9=62|35=0|34=115|49=HSBC|52=20171128-07:58:12.422|56=ALGO-EXCHANGE|10=240|
8=FIX.4.2|9=62|35=0|34=118|49=ALGO-EXCHANGE|52=20171128-07:58:17.235|56=HSBC|10=250|
8=FIX.4.2|9=62|35=0|34=116|49=HSBC|52=20171128-07:58:17.424|56=ALGO-EXCHANGE|10=248|
8=FIX.4.2|9=62|35=0|34=119|49=ALGO-EXCHANGE|52=20171128-07:58:22.236|56=HSBC|10=248|
8=FIX.4.2|9=62|35=0|34=117|49=HSBC|52=20171128-07:58:22.424|56=ALGO-EXCHANGE|10=245|
8=FIX.4.2|9=62|35=0|34=120|49=ALGO-EXCHANGE|52=20171128-07:58:27.237|56=HSBC|10=246|
8=FIX.4.2|9=62|35=0|34=118|49=HSBC|52=20171128-07:58:27.424|56=ALGO-EXCHANGE|10=251|
8=FIX.4.2|9=62|35=0|34=121|49=ALGO-EXCHANGE|52=20171128-07:58:32.237|56=HSBC|10=243|
8=FIX.4.2|9=62|35=0|34=119|49=HSBC|52=20171128-07:58:32.424|56=ALGO-EXCHANGE|10=248|
8=FIX.4.2|9=62|35=0|34=122|49=ALGO-EXCHANGE|52=20171128-07:58:37.238|56=HSBC|10=250|
8=FIX.4.2|9=62|35=0|34=120|49=HSBC|52=20171128-07:58:37.425|56=ALGO-EXCHANGE|10=246|
8=FIX.4.2|9=62|35=0|34=123|49=ALGO-EXCHANGE|52=20171128-07:58:42.238|56=HSBC|10=247|
8=FIX.4.2|9=62|35=0|34=121|49=HSBC|52=20171128-07:58:42.425|56=ALGO-EXCHANGE|10=243|
8=FIX.4.2|9=62|35=0|34=124|49=ALGO-EXCHANGE|52=20171128-07:58:47.239|56=HSBC|10=254|
8=FIX.4.2|9=62|35=0|34=122|49=HSBC|52=20171128-07:58:47.426|56=ALGO-EXCHANGE|10=250|
8=FIX.4.2|9=62|35=0|34=125|49=ALGO-EXCHANGE|52=20171128-07:58:52.240|56=HSBC|10=243|
8=FIX.4.2|9=62|35=0|34=123|49=HSBC|52=20171128-07:58:52.426|56=ALGO-EXCHANGE|10=247|
8=FIX.4.2|9=62|35=0|34=126|49=ALGO-EXCHANGE|52=20171128-07:58:57.247|56=HSBC|10=000|
8=FIX.4.2|9=62|35=0|34=124|49=HSBC|52=20171128-07:58:57.427|56=ALGO-EXCHANGE|10=254|
8=FIX.4.2|9=62|35=0|34=125|49=HSBC|52=20171128-07:59:02.428|56=ALGO-EXCHANGE|10=247|
8=FIX.4.2|9=62|35=0|34=127|49=ALGO-EXCHANGE|52=20171128-07:59:02.430|56=HSBC|10=242|
8=FIX.4.2|9=62|35=0|34=126|49=HSBC|52=20171128-07:59:07.428|56=ALGO-EXCHANGE|10=253|
8=FIX.4.2|9=62|35=0|34=128|49=ALGO-EXCHANGE|52=20171128-07:59:07.430|56=HSBC|10=248|
8=FIX.4.2|9=62|35=0|34=129|49=ALGO-EXCHANGE|52=20171128-07:59:13.241|56=HSBC|10=246|
8=FIX.4.2|9=62|35=0|34=127|49=HSBC|52=20171128-07:59:13.242|56=ALGO-EXCHANGE|10=245|
8=FIX.4.2|9=62|35=0|34=130|49=ALGO-EXCHANGE|52=20171128-07:59:18.241|56=HSBC|10=243|
8=FIX.4.2|9=62|35=0|34=128|49=HSBC|52=20171128-07:59:18.243|56=ALGO-EXCHANGE|10=252|
8=FIX.4.2|9=62|35=0|34=131|49=ALGO-EXCHANGE|52=20171128-07:59:23.243|56=HSBC|10=242|
8=FIX.4.2|9=62|35=0|34=129|49=HSBC|52=20171128-07:59:23.244|56=ALGO-EXCHANGE|10=250|
8=FIX.4.2|9=62|35=0|34=130|49=HSBC|52=20171128-07:59:28.429|56=ALGO-EXCHANGE|10=252|
8=FIX.4.2|9=62|35=0|34=132|49=ALGO-EXCHANGE|52=20171128-07:59:28.430|56=HSBC|10=246|
8=FIX.4.2|9=62|35=0|34=131|49=HSBC|52=20171128-07:59:33.431|56=ALGO-EXCHANGE|10=242|
8=FIX.4.2|9=62|35=0|34=133|49=ALGO-EXCHANGE|52=20171128-07:59:33.433|56=HSBC|10=246|
8=FIX.4.2|9=62|35=0|34=132|49=HSBC|52=20171128-07:59:38.431|56=ALGO-EXCHANGE|10=248|
8=FIX.4.2|9=62|35=0|34=134|49=ALGO-EXCHANGE|52=20171128-07:59:38.434|56=HSBC|10=253|
8=FIX.4.2|9=62|35=0|34=133|49=HSBC|52=20171128-07:59:43.431|56=ALGO-EXCHANGE|10=245|
8=FIX.4.2|9=62|35=0|34=135|49=ALGO-EXCHANGE|52=20171128-07:59:44.244|56=HSBC|10=250|
8=FIX.4.2|9=62|35=0|34=134|49=HSBC|52=20171128-07:59:48.432|56=ALGO-EXCHANGE|10=252|
8=FIX.4.2|9=62|35=0|34=136|49=ALGO-EXCHANGE|52=20171128-07:59:49.244|56=HSBC|10=000|
8=FIX.4.2|9=62|35=0|34=135|49=HSBC|52=20171128-07:59:53.432|56=ALGO-EXCHANGE|10=249|
8=FIX.4.2|9=62|35=0|34=137|49=ALGO-EXCHANGE|52=20171128-07:59:54.245|56=HSBC|10=254|
8=FIX.4.2|9=62|35=0|34=136|49=HSBC|52=20171128-07:59:58.432|56=ALGO-EXCHANGE|10=255|
8=FIX.4.2|9=62|35=0|34=138|49=ALGO-EXCHANGE|52=20171128-07:59:59.245|56=HSBC|10=004|
8=FIX.4.2|9=62|35=0|34=137|49=HSBC|52=20171128-08:00:03.433|56=ALGO-EXCHANGE|10=234|
8=FIX.4.2|9=62|35=0|34=139|49=ALGO-EXCHANGE|52=20171128-08:00:04.246|56=HSBC|10=239|
8=FIX.4.2|9=62|35=0|34=140|49=ALGO-EXCHANGE|52=20171128-08:00:09.246|56=HSBC|10=236|
8=FIX.4.2|9=62|35=0|34=138|49=HSBC|52=20171128-08:00:09.247|56=ALGO-EXCHANGE|10=244|
8=FIX.4.2|9=62|35=0|34=141|49=ALGO-EXCHANGE|52=20171128-08:00:14.246|56=HSBC|10=233|
8=FIX.4.2|9=62|35=0|34=139|49=HSBC|52=20171128-08:00:14.247|56=ALGO-EXCHANGE|10=241|
8=FIX.4.2|9=62|35=0|34=142|49=ALGO-EXCHANGE|52=20171128-08:00:19.247|56=HSBC|10=240|
8=FIX.4.2|9=62|35=0|34=140|49=HSBC|52=20171128-08:00:19.248|56=ALGO-EXCHANGE|10=239|
8=FIX.4.2|9=62|35=0|34=143|49=ALGO-EXCHANGE|52=20171128-08:00:24.247|56=HSBC|10=237|
8=FIX.4.2|9=62|35=0|34=141|49=HSBC|52=20171128-08:00:24.248|56=ALGO-EXCHANGE|10=236|
8=FIX.4.2|9=62|35=0|34=144|49=ALGO-EXCHANGE|52=20171128-08:00:29.248|56=HSBC|10=244|
8=FIX.4.2|9=62|35=0|34=142|49=HSBC|52=20171128-08:00:29.248|56=ALGO-EXCHANGE|10=242|
8=FIX.4.2|9=62|35=0|34=145|49=ALGO-EXCHANGE|52=20171128-08:00:34.248|56=HSBC|10=241|
8=FIX.4.2|9=62|35=0|34=143|49=HSBC|52=20171128-08:00:34.249|56=ALGO-EXCHANGE|10=240|
8=FIX.4.2|9=62|35=0|34=146|49=ALGO-EXCHANGE|52=20171128-08:00:39.249|56=HSBC|10=248|
8=FIX.4.2|9=62|35=0|34=144|49=HSBC|52=20171128-08:00:39.250|56=ALGO-EXCHANGE|10=238|
8=FIX.4.2|9=62|35=0|34=147|49=ALGO-EXCHANGE|52=20171128-08:00:44.249|56=HSBC|10=245|
8=FIX.4.2|9=62|35=0|34=145|49=HSBC|52=20171128-08:00:44.250|56=ALGO-EXCHANGE|10=235|
8=FIX.4.2|9=62|35=0|34=148|49=ALGO-EXCHANGE|52=20171128-08:00:49.249|56=HSBC|10=251|
8=FIX.4.2|9=62|35=0|34=146|49=HSBC|52=20171128-08:00:49.250|56=ALGO-EXCHANGE|10=241|
8=FIX.4.2|9=62|35=0|34=149|49=ALGO-EXCHANGE|52=20171128-08:00:54.251|56=HSBC|10=241|
8=FIX.4.2|9=62|35=0|34=147|49=HSBC|52=20171128-08:00:54.252|56=ALGO-EXCHANGE|10=240|
8=FIX.4.2|9=62|35=0|34=148|49=HSBC|52=20171128-08:00:59.438|56=ALGO-EXCHANGE|10=252|
8=FIX.4.2|9=62|35=0|34=150|49=ALGO-EXCHANGE|52=20171128-08:00:59.439|56=HSBC|10=246|
8=FIX.4.2|9=62|35=0|34=151|49=ALGO-EXCHANGE|52=20171128-08:01:05.250|56=HSBC|10=230|
8=FIX.4.2|9=62|35=0|34=149|49=HSBC|52=20171128-08:01:05.251|56=ALGO-EXCHANGE|10=238|
8=FIX.4.2|9=62|35=0|34=152|49=ALGO-EXCHANGE|52=20171128-08:01:10.251|56=HSBC|10=228|
8=FIX.4.2|9=62|35=0|34=150|49=HSBC|52=20171128-08:01:10.252|56=ALGO-EXCHANGE|10=227|
8=FIX.4.2|9=62|35=0|34=153|49=ALGO-EXCHANGE|52=20171128-08:01:15.251|56=HSBC|10=234|
8=FIX.4.2|9=62|35=0|34=151|49=HSBC|52=20171128-08:01:15.252|56=ALGO-EXCHANGE|10=233|
8=FIX.4.2|9=62|35=0|34=154|49=ALGO-EXCHANGE|52=20171128-08:01:20.251|56=HSBC|10=231|
8=FIX.4.2|9=62|35=0|34=152|49=HSBC|52=20171128-08:01:20.252|56=ALGO-EXCHANGE|10=230|
8=FIX.4.2|9=62|35=0|34=155|49=ALGO-EXCHANGE|52=20171128-08:01:25.252|56=HSBC|10=238|
8=FIX.4.2|9=62|35=0|34=153|49=HSBC|52=20171128-08:01:25.254|56=ALGO-EXCHANGE|10=238|
8=FIX.4.2|9=62|35=0|34=156|49=ALGO-EXCHANGE|52=20171128-08:01:30.252|56=HSBC|10=235|
8=FIX.4.2|9=62|35=0|34=154|49=HSBC|52=20171128-08:01:30.254|56=ALGO-EXCHANGE|10=235|
8=FIX.4.2|9=62|35=0|34=157|49=ALGO-EXCHANGE|52=20171128-08:01:35.252|56=HSBC|10=241|
8=FIX.4.2|9=62|35=0|34=155|49=HSBC|52=20171128-08:01:35.440|56=ALGO-EXCHANGE|10=238|
8=FIX.4.2|9=62|35=0|34=158|49=ALGO-EXCHANGE|52=20171128-08:01:40.252|56=HSBC|10=238|
8=FIX.4.2|9=62|35=0|34=156|49=HSBC|52=20171128-08:01:40.440|56=ALGO-EXCHANGE|10=235|
8=FIX.4.2|9=62|35=0|34=159|49=ALGO-EXCHANGE|52=20171128-08:01:45.254|56=HSBC|10=246|
8=FIX.4.2|9=62|35=0|34=157|49=HSBC|52=20171128-08:01:45.441|56=ALGO-EXCHANGE|10=242|
8=FIX.4.2|9=62|35=0|34=158|49=HSBC|52=20171128-08:01:50.441|56=ALGO-EXCHANGE|10=239|
8=FIX.4.2|9=62|35=0|34=160|49=ALGO-EXCHANGE|52=20171128-08:01:50.443|56=HSBC|10=234|
8=FIX.4.2|9=62|35=0|34=159|49=HSBC|52=20171128-08:01:55.441|56=ALGO-EXCHANGE|10=245|
8=FIX.4.2|9=62|35=0|34=161|49=ALGO-EXCHANGE|52=20171128-08:01:55.445|56=HSBC|10=242|
8=FIX.4.2|9=62|35=0|34=160|49=HSBC|52=20171128-08:02:00.442|56=ALGO-EXCHANGE|10=229|
8=FIX.4.2|9=62|35=0|34=162|49=ALGO-EXCHANGE|52=20171128-08:02:01.254|56=HSBC|10=233|
8=FIX.4.2|9=62|35=0|34=161|49=HSBC|52=20171128-08:02:05.442|56=ALGO-EXCHANGE|10=235|
8=FIX.4.2|9=62|35=0|34=163|49=ALGO-EXCHANGE|52=20171128-08:02:06.255|56=HSBC|10=240|
8=FIX.4.2|9=62|35=0|34=162|49=HSBC|52=20171128-08:02:10.442|56=ALGO-EXCHANGE|10=232|
8=FIX.4.2|9=62|35=0|34=164|49=ALGO-EXCHANGE|52=20171128-08:02:11.255|56=HSBC|10=237|
8=FIX.4.2|9=62|35=0|34=163|49=HSBC|52=20171128-08:02:15.442|56=ALGO-EXCHANGE|10=238|
8=FIX.4.2|9=62|35=0|34=165|49=ALGO-EXCHANGE|52=20171128-08:02:16.256|56=HSBC|10=244|
8=FIX.4.2|9=62|35=0|34=164|49=HSBC|52=20171128-08:02:20.442|56=ALGO-EXCHANGE|10=235|
8=FIX.4.2|9=62|35=0|34=166|49=ALGO-EXCHANGE|52=20171128-08:02:22.256|56=HSBC|10=242|
8=FIX.4.2|9=62|35=0|34=165|49=HSBC|52=20171128-08:02:25.443|56=ALGO-EXCHANGE|10=242|
8=FIX.4.2|9=62|35=0|34=167|49=ALGO-EXCHANGE|52=20171128-08:02:28.256|56=HSBC|10=249|
8=FIX.4.2|9=62|35=0|34=166|49=HSBC|52=20171128-08:02:30.443|56=ALGO-EXCHANGE|10=239|
8=FIX.4.2|9=62|35=0|34=168|49=ALGO-EXCHANGE|52=20171128-08:02:33.257|56=HSBC|10=247|
8=FIX.4.2|9=62|35=0|34=167|49=HSBC|52=20171128-08:02:35.444|56=ALGO-EXCHANGE|10=246|
8=FIX.4.2|9=62|35=0|34=169|49=ALGO-EXCHANGE|52=20171128-08:02:38.257|56=HSBC|10=253|
8=FIX.4.2|9=62|35=0|34=168|49=HSBC|52=20171128-08:02:40.444|56=ALGO-EXCHANGE|10=243|
8=FIX.4.2|9=62|35=0|34=170|49=ALGO-EXCHANGE|52=20171128-08:02:43.257|56=HSBC|10=241|
8=FIX.4.2|9=62|35=0|34=169|49=HSBC|52=20171128-08:02:45.444|56=ALGO-EXCHANGE|10=249|
8=FIX.4.2|9=62|35=0|34=171|49=ALGO-EXCHANGE|52=20171128-08:02:48.257|56=HSBC|10=247|
8=FIX.4.2|9=62|35=0|34=170|49=HSBC|52=20171128-08:02:50.445|56=ALGO-EXCHANGE|10=238|
8=FIX.4.2|9=62|35=0|34=172|49=ALGO-EXCHANGE|52=20171128-08:02:53.257|56=HSBC|10=244|
8=FIX.4.2|9=62|35=0|34=171|49=HSBC|52=20171128-08:02:55.445|56=ALGO-EXCHANGE|10=244|
8=FIX.4.2|9=62|35=0|34=173|49=ALGO-EXCHANGE|52=20171128-08:02:58.258|56=HSBC|10=251|
8=FIX.4.2|9=62|35=0|34=172|49=HSBC|52=20171128-08:03:00.445|56=ALGO-EXCHANGE|10=236|
8=FIX.4.2|9=62|35=0|34=174|49=ALGO-EXCHANGE|52=20171128-08:03:03.258|56=HSBC|10=243|
8=FIX.4.2|9=62|35=0|34=173|49=HSBC|52=20171128-08:03:05.445|56=ALGO-EXCHANGE|10=242|
8=FIX.4.2|9=62|35=0|34=175|49=ALGO-EXCHANGE|52=20171128-08:03:08.259|56=HSBC|10=250|
8=FIX.4.2|9=62|35=0|34=174|49=HSBC|52=20171128-08:03:10.446|56=ALGO-EXCHANGE|10=240|
8=FIX.4.2|9=62|35=0|34=176|49=ALGO-EXCHANGE|52=20171128-08:03:13.259|56=HSBC|10=247|
8=FIX.4.2|9=62|35=0|34=175|49=HSBC|52=20171128-08:03:15.447|56=ALGO-EXCHANGE|10=247|
8=FIX.4.2|9=62|35=0|34=177|49=ALGO-EXCHANGE|52=20171128-08:03:18.259|56=HSBC|10=253|
8=FIX.4.2|9=62|35=0|34=176|49=HSBC|52=20171128-08:03:20.447|56=ALGO-EXCHANGE|10=244|
8=FIX.4.2|9=62|35=0|34=178|49=ALGO-EXCHANGE|52=20171128-08:03:23.259|56=HSBC|10=250|
8=FIX.4.2|9=62|35=0|34=177|49=HSBC|52=20171128-08:03:26.447|56=ALGO-EXCHANGE|10=251|
8=FIX.4.2|9=62|35=0|34=179|49=ALGO-EXCHANGE|52=20171128-08:03:28.260|56=HSBC|10=248|
8=FIX.4.2|9=62|35=0|34=178|49=HSBC|52=20171128-08:03:31.447|56=ALGO-EXCHANGE|10=248|
8=FIX.4.2|9=62|35=0|34=180|49=ALGO-EXCHANGE|52=20171128-08:03:33.260|56=HSBC|10=236|
8=FIX.4.2|9=62|35=0|34=179|49=HSBC|52=20171128-08:03:36.447|56=ALGO-EXCHANGE|10=254|
8=FIX.4.2|9=62|35=0|34=181|49=ALGO-EXCHANGE|52=20171128-08:03:38.261|56=HSBC|10=243|
8=FIX.4.2|9=62|35=0|34=180|49=HSBC|52=20171128-08:03:41.447|56=ALGO-EXCHANGE|10=242|
8=FIX.4.2|9=62|35=0|34=182|49=ALGO-EXCHANGE|52=20171128-08:03:43.261|56=HSBC|10=240|
8=FIX.4.2|9=62|35=0|34=181|49=HSBC|52=20171128-08:03:46.448|56=ALGO-EXCHANGE|10=249|
8=FIX.4.2|9=62|35=0|34=183|49=ALGO-EXCHANGE|52=20171128-08:03:48.261|56=HSBC|10=246|
8=FIX.4.2|9=62|35=0|34=182|49=HSBC|52=20171128-08:03:51.448|56=ALGO-EXCHANGE|10=246|
8=FIX.4.2|9=62|35=0|34=184|49=ALGO-EXCHANGE|52=20171128-08:03:53.261|56=HSBC|10=243|
8=FIX.4.2|9=62|35=0|34=183|49=HSBC|52=20171128-08:03:56.449|56=ALGO-EXCHANGE|10=253|
8=FIX.4.2|9=62|35=0|34=185|49=ALGO-EXCHANGE|52=20171128-08:03:58.261|56=HSBC|10=249|
8=FIX.4.2|9=62|35=0|34=184|49=HSBC|52=20171128-08:04:01.449|56=ALGO-EXCHANGE|10=245|
8=FIX.4.2|9=62|35=0|34=186|49=ALGO-EXCHANGE|52=20171128-08:04:03.262|56=HSBC|10=242|
8=FIX.4.2|9=62|35=0|34=185|49=HSBC|52=20171128-08:04:06.449|56=ALGO-EXCHANGE|10=251|
8=FIX.4.2|9=62|35=0|34=187|49=ALGO-EXCHANGE|52=20171128-08:04:08.262|56=HSBC|10=248|
8=FIX.4.2|9=62|35=0|34=186|49=HSBC|52=20171128-08:04:11.450|56=ALGO-EXCHANGE|10=240|
8=FIX.4.2|9=62|35=0|34=188|49=ALGO-EXCHANGE|52=20171128-08:04:13.263|56=HSBC|10=246|
8=FIX.4.2|9=62|35=0|34=187|49=HSBC|52=20171128-08:04:16.451|56=ALGO-EXCHANGE|10=247|
8=FIX.4.2|9=62|35=0|34=189|49=ALGO-EXCHANGE|52=20171128-08:04:18.263|56=HSBC|10=252|
8=FIX.4.2|9=62|35=0|34=188|49=HSBC|52=20171128-08:04:22.450|56=ALGO-EXCHANGE|10=244|
8=FIX.4.2|9=62|35=0|34=190|49=ALGO-EXCHANGE|52=20171128-08:04:23.263|56=HSBC|10=240|
8=FIX.4.2|9=62|35=0|34=189|49=HSBC|52=20171128-08:04:27.451|56=ALGO-EXCHANGE|10=251|
8=FIX.4.2|9=62|35=0|34=191|49=ALGO-EXCHANGE|52=20171128-08:04:28.264|56=HSBC|10=247|
8=FIX.4.2|9=62|35=0|34=190|49=HSBC|52=20171128-08:04:32.451|56=ALGO-EXCHANGE|10=239|
8=FIX.4.2|9=62|35=0|34=192|49=ALGO-EXCHANGE|52=20171128-08:04:33.264|56=HSBC|10=244|
8=FIX.4.2|9=62|35=0|34=191|49=HSBC|52=20171128-08:04:37.452|56=ALGO-EXCHANGE|10=246|
8=FIX.4.2|9=62|35=0|34=193|49=ALGO-EXCHANGE|52=20171128-08:04:38.264|56=HSBC|10=250|
8=FIX.4.2|9=62|35=0|34=192|49=HSBC|52=20171128-08:04:42.452|56=ALGO-EXCHANGE|10=243|
8=FIX.4.2|9=62|35=0|34=194|49=ALGO-EXCHANGE|52=20171128-08:04:43.265|56=HSBC|10=248|
8=FIX.4.2|9=62|35=0|34=193|49=HSBC|52=20171128-08:04:47.453|56=ALGO-EXCHANGE|10=250|
8=FIX.4.2|9=62|35=0|34=195|49=ALGO-EXCHANGE|52=20171128-08:04:48.265|56=HSBC|10=254|
8=FIX.4.2|9=62|35=0|34=196|49=ALGO-EXCHANGE|52=20171128-08:04:53.265|56=HSBC|10=251|
8=FIX.4.2|9=62|35=0|34=194|49=HSBC|52=20171128-08:04:53.265|56=ALGO-EXCHANGE|10=249|
8=FIX.4.2|9=62|35=0|34=197|49=ALGO-EXCHANGE|52=20171128-08:04:58.268|56=HSBC|10=004|
8=FIX.4.2|9=62|35=0|34=195|49=HSBC|52=20171128-08:04:58.271|56=ALGO-EXCHANGE|10=252|
8=FIX.4.2|9=62|35=0|34=196|49=HSBC|52=20171128-08:05:03.453|56=ALGO-EXCHANGE|10=246|
8=FIX.4.2|9=62|35=0|34=198|49=ALGO-EXCHANGE|52=20171128-08:05:03.455|56=HSBC|10=250|
8=FIX.4.2|9=62|35=0|34=197|49=HSBC|52=20171128-08:05:08.454|56=ALGO-EXCHANGE|10=253|
8=FIX.4.2|9=62|35=0|34=199|49=ALGO-EXCHANGE|52=20171128-08:05:08.455|56=HSBC|10=000|
8=FIX.4.2|9=62|35=0|34=200|49=ALGO-EXCHANGE|52=20171128-08:05:14.266|56=HSBC|10=236|
8=FIX.4.2|9=62|35=0|34=198|49=HSBC|52=20171128-08:05:14.267|56=ALGO-EXCHANGE|10=253|
8=FIX.4.2|9=62|35=0|34=201|49=ALGO-EXCHANGE|52=20171128-08:05:19.267|56=HSBC|10=243|
8=FIX.4.2|9=62|35=0|34=199|49=HSBC|52=20171128-08:05:19.268|56=ALGO-EXCHANGE|10=004|
8=FIX.4.2|9=62|35=0|34=202|49=ALGO-EXCHANGE|52=20171128-08:05:24.267|56=HSBC|10=240|
8=FIX.4.2|9=62|35=0|34=200|49=HSBC|52=20171128-08:05:24.268|56=ALGO-EXCHANGE|10=239|
8=FIX.4.2|9=62|35=0|34=203|49=ALGO-EXCHANGE|52=20171128-08:05:29.267|56=HSBC|10=246|
8=FIX.4.2|9=62|35=0|34=201|49=HSBC|52=20171128-08:05:29.268|56=ALGO-EXCHANGE|10=245|
8=FIX.4.2|9=62|35=0|34=204|49=ALGO-EXCHANGE|52=20171128-08:05:34.268|56=HSBC|10=244|
8=FIX.4.2|9=62|35=0|34=202|49=HSBC|52=20171128-08:05:34.269|56=ALGO-EXCHANGE|10=243|
8=FIX.4.2|9=62|35=0|34=205|49=ALGO-EXCHANGE|52=20171128-08:05:39.269|56=HSBC|10=251|
8=FIX.4.2|9=62|35=0|34=203|49=HSBC|52=20171128-08:05:39.270|56=ALGO-EXCHANGE|10=241|
8=FIX.4.2|9=62|35=0|34=204|49=HSBC|52=20171128-08:05:44.456|56=ALGO-EXCHANGE|10=244|
8=FIX.4.2|9=62|35=0|34=206|49=ALGO-EXCHANGE|52=20171128-08:05:44.457|56=HSBC|10=247|
8=FIX.4.2|9=62|35=0|34=207|49=ALGO-EXCHANGE|52=20171128-08:05:50.269|56=HSBC|10=246|
8=FIX.4.2|9=62|35=0|34=205|49=HSBC|52=20171128-08:05:50.271|56=ALGO-EXCHANGE|10=237|
8=FIX.4.2|9=62|35=0|34=208|49=ALGO-EXCHANGE|52=20171128-08:05:55.269|56=HSBC|10=252|
8=FIX.4.2|9=62|35=0|34=206|49=HSBC|52=20171128-08:05:55.456|56=ALGO-EXCHANGE|10=248|
8=FIX.4.2|9=62|35=0|34=209|49=ALGO-EXCHANGE|52=20171128-08:06:00.269|56=HSBC|10=244|
8=FIX.4.2|9=62|35=0|34=207|49=HSBC|52=20171128-08:06:00.457|56=ALGO-EXCHANGE|10=241|
8=FIX.4.2|9=62|35=0|34=210|49=ALGO-EXCHANGE|52=20171128-08:06:05.269|56=HSBC|10=241|
8=FIX.4.2|9=62|35=0|34=208|49=HSBC|52=20171128-08:06:05.457|56=ALGO-EXCHANGE|10=247|
8=FIX.4.2|9=62|35=0|34=211|49=ALGO-EXCHANGE|52=20171128-08:06:10.271|56=HSBC|10=231|
8=FIX.4.2|9=62|35=0|34=209|49=HSBC|52=20171128-08:06:10.457|56=ALGO-EXCHANGE|10=244|
8=FIX.4.2|9=62|35=0|34=210|49=HSBC|52=20171128-08:06:15.458|56=ALGO-EXCHANGE|10=242|
8=FIX.4.2|9=62|35=0|34=212|49=ALGO-EXCHANGE|52=20171128-08:06:15.460|56=HSBC|10=237|
8=FIX.4.2|9=62|35=0|34=211|49=HSBC|52=20171128-08:06:20.458|56=ALGO-EXCHANGE|10=239|
8=FIX.4.2|9=62|35=0|34=213|49=ALGO-EXCHANGE|52=20171128-08:06:21.271|56=HSBC|10=235|
8=FIX.4.2|9=62|35=0|34=212|49=HSBC|52=20171128-08:06:25.458|56=ALGO-EXCHANGE|10=245|
8=FIX.4.2|9=62|35=0|34=214|49=ALGO-EXCHANGE|52=20171128-08:06:26.271|56=HSBC|10=241|
8=FIX.4.2|9=62|35=0|34=213|49=HSBC|52=20171128-08:06:30.459|56=ALGO-EXCHANGE|10=243|
8=FIX.4.2|9=62|35=0|34=215|49=ALGO-EXCHANGE|52=20171128-08:06:31.271|56=HSBC|10=238|
8=FIX.4.2|9=62|35=0|34=214|49=HSBC|52=20171128-08:06:35.459|56=ALGO-EXCHANGE|10=249|
8=FIX.4.2|9=62|35=0|34=216|49=ALGO-EXCHANGE|52=20171128-08:06:36.272|56=HSBC|10=245|
8=FIX.4.2|9=62|35=0|34=215|49=HSBC|52=20171128-08:06:40.459|56=ALGO-EXCHANGE|10=246|
8=FIX.4.2|9=62|35=0|34=217|49=ALGO-EXCHANGE|52=20171128-08:06:41.272|56=HSBC|10=242|
8=FIX.4.2|9=62|35=0|34=218|49=ALGO-EXCHANGE|52=20171128-08:06:46.272|56=HSBC|10=248|
8=FIX.4.2|9=62|35=0|34=216|49=HSBC|52=20171128-08:06:46.272|56=ALGO-EXCHANGE|10=246|
8=FIX.4.2|9=62|35=0|34=219|49=ALGO-EXCHANGE|52=20171128-08:06:51.272|56=HSBC|10=245|
8=FIX.4.2|9=62|35=0|34=217|49=HSBC|52=20171128-08:06:51.273|56=ALGO-EXCHANGE|10=244|
8=FIX.4.2|9=62|35=0|34=220|49=ALGO-EXCHANGE|52=20171128-08:06:56.273|56=HSBC|10=243|
8=FIX.4.2|9=62|35=0|34=218|49=HSBC|52=20171128-08:06:56.275|56=ALGO-EXCHANGE|10=252|
8=FIX.4.2|9=62|35=0|34=221|49=ALGO-EXCHANGE|52=20171128-08:07:01.274|56=HSBC|10=236|
8=FIX.4.2|9=62|35=0|34=219|49=HSBC|52=20171128-08:07:01.275|56=ALGO-EXCHANGE|10=244|
8=FIX.4.2|9=62|35=0|34=220|49=HSBC|52=20171128-08:07:06.460|56=ALGO-EXCHANGE|10=237|
8=FIX.4.2|9=62|35=0|34=222|49=ALGO-EXCHANGE|52=20171128-08:07:06.463|56=HSBC|10=242|
8=FIX.4.2|9=62|35=0|34=221|49=HSBC|52=20171128-08:07:11.460|56=ALGO-EXCHANGE|10=234|
8=FIX.4.2|9=62|35=0|34=223|49=ALGO-EXCHANGE|52=20171128-08:07:12.273|56=HSBC|10=239|
8=FIX.4.2|9=62|35=0|34=222|49=HSBC|52=20171128-08:07:16.461|56=ALGO-EXCHANGE|10=241|
8=FIX.4.2|9=62|35=0|34=224|49=ALGO-EXCHANGE|52=20171128-08:07:17.273|56=HSBC|10=245|
8=FIX.4.2|9=62|35=0|34=223|49=HSBC|52=20171128-08:07:21.461|56=ALGO-EXCHANGE|10=238|
8=FIX.4.2|9=62|35=0|34=225|49=ALGO-EXCHANGE|52=20171128-08:07:22.274|56=HSBC|10=243|
8=FIX.4.2|9=62|35=0|34=224|49=HSBC|52=20171128-08:07:26.461|56=ALGO-EXCHANGE|10=244|
8=FIX.4.2|9=62|35=0|34=226|49=ALGO-EXCHANGE|52=20171128-08:07:27.274|56=HSBC|10=249|
8=FIX.4.2|9=62|35=0|34=225|49=HSBC|52=20171128-08:07:31.461|56=ALGO-EXCHANGE|10=241|
8=FIX.4.2|9=62|35=0|34=227|49=ALGO-EXCHANGE|52=20171128-08:07:32.274|56=HSBC|10=246|
8=FIX.4.2|9=62|35=0|34=226|49=HSBC|52=20171128-08:07:36.463|56=ALGO-EXCHANGE|10=249|
8=FIX.4.2|9=62|35=0|34=228|49=ALGO-EXCHANGE|52=20171128-08:07:37.274|56=HSBC|10=252|
8=FIX.4.2|9=62|35=0|34=229|49=ALGO-EXCHANGE|52=20171128-08:07:42.274|56=HSBC|10=249|
8=FIX.4.2|9=62|35=0|34=227|49=HSBC|52=20171128-08:07:42.275|56=ALGO-EXCHANGE|10=248|
